{
  "contractName": "Food",
  "abi": [
    {
      "inputs": [
        {
          "internalType": "address payable",
          "name": "_wallet",
          "type": "address"
        },
        {
          "internalType": "contract ERC20",
          "name": "_token",
          "type": "address"
        }
      ],
      "stateMutability": "nonpayable",
      "type": "constructor"
    },
    {
      "stateMutability": "payable",
      "type": "fallback"
    },
    {
      "inputs": [],
      "name": "token",
      "outputs": [
        {
          "internalType": "contract ERC20",
          "name": "",
          "type": "address"
        }
      ],
      "stateMutability": "view",
      "type": "function"
    },
    {
      "inputs": [
        {
          "internalType": "address",
          "name": "_recipient",
          "type": "address"
        }
      ],
      "name": "buyTokens",
      "outputs": [],
      "stateMutability": "payable",
      "type": "function"
    }
  ],
  "bytecode": "0x608060405234801561001057600080fd5b50604051610576380380610576833981810160405281019061003291906100de565b600073ffffffffffffffffffffffffffffffffffffffff168273ffffffffffffffffffffffffffffffffffffffff16141561006c57600080fd5b81600160006101000a81548173ffffffffffffffffffffffffffffffffffffffff021916908373ffffffffffffffffffffffffffffffffffffffff160217905550505061019e565b6000815190506100c381610170565b92915050565b6000815190506100d881610187565b92915050565b600080604083850312156100f157600080fd5b60006100ff858286016100b4565b9250506020610110858286016100c9565b9150509250929050565b600061012582610150565b9050919050565b600061013782610150565b9050919050565b60006101498261011a565b9050919050565b600073ffffffffffffffffffffffffffffffffffffffff82169050919050565b6101798161012c565b811461018457600080fd5b50565b6101908161013e565b811461019b57600080fd5b50565b6103c9806101ad6000396000f3fe60806040526004361061002d5760003560e01c8063ec8ac4d814610039578063fc0c546a146100555761002e565b5b61003733610080565b005b610053600480360381019061004e9190610236565b610080565b005b34801561006157600080fd5b5061006a6101e8565b60405161007791906102de565b60405180910390f35b600073ffffffffffffffffffffffffffffffffffffffff168173ffffffffffffffffffffffffffffffffffffffff1614156100ba57600080fd5b60003414156100c857600080fd5b600034905060008054906101000a900473ffffffffffffffffffffffffffffffffffffffff1673ffffffffffffffffffffffffffffffffffffffff1663a9059cbb83836040518363ffffffff1660e01b81526004016101289291906102b5565b602060405180830381600087803b15801561014257600080fd5b505af1158015610156573d6000803e3d6000fd5b505050506040513d601f19601f8201168201806040525081019061017a919061025f565b50600160009054906101000a900473ffffffffffffffffffffffffffffffffffffffff1673ffffffffffffffffffffffffffffffffffffffff166108fc349081150290604051600060405180830381858888f193505050501580156101e3573d6000803e3d6000fd5b505050565b60008054906101000a900473ffffffffffffffffffffffffffffffffffffffff1681565b60008135905061021b81610365565b92915050565b6000815190506102308161037c565b92915050565b60006020828403121561024857600080fd5b60006102568482850161020c565b91505092915050565b60006020828403121561027157600080fd5b600061027f84828501610221565b91505092915050565b610291816102f9565b82525050565b6102a081610341565b82525050565b6102af81610337565b82525050565b60006040820190506102ca6000830185610288565b6102d760208301846102a6565b9392505050565b60006020820190506102f36000830184610297565b92915050565b600061030482610317565b9050919050565b60008115159050919050565b600073ffffffffffffffffffffffffffffffffffffffff82169050919050565b6000819050919050565b600061034c82610353565b9050919050565b600061035e82610317565b9050919050565b61036e816102f9565b811461037957600080fd5b50565b6103858161030b565b811461039057600080fd5b5056fea26469706673582212201dfd390f4f3d0804a86b0341df78d66314feda25cb46636766277869211db5e964736f6c63430008000033",
  "immutableReferences": {},
  "source": "pragma solidity >=0.4.22 <0.9.0;\n\nimport \"openzeppelin-solidity/contracts/token/ERC20/ERC20.sol\";\nimport \"openzeppelin-solidity/contracts/utils/math/SafeMath.sol\";\n\n\ncontract Food{\n  using SafeMath for uint256;\n  ERC20 public token;\n  address payable wallet;\n\n  constructor(address payable _wallet, ERC20 _token) public {\n    require(_wallet != address(0));\n\n    wallet = _wallet;\n  }\n\n  fallback () external payable {\n      buyTokens(msg.sender);\n  }\n\n  function buyTokens(address _recipient) public payable {\n    require(_recipient != address(0));\n    require(msg.value != 0);\n\n    uint256 tokens = msg.value;\n\n    token.transfer(_recipient, tokens);\n    wallet.transfer(msg.value);\n  }\n\n}\n",
  "sourcePath": "/home/kali/Desktop/AgroToken/contracts/Food.sol",
  "compiler": {
    "name": "solc",
    "version": "0.8.0+commit.c7dfd78e.Emscripten.clang"
  },
  "schemaVersion": "3.3.3",
  "updatedAt": "2021-05-17T13:39:00.394Z",
  "devdoc": {
    "kind": "dev",
    "methods": {},
    "version": 1
  },
  "userdoc": {
    "kind": "user",
    "methods": {},
    "version": 1
  }
}