{
  "contractName": "SolutionERC1155",
  "abi": [
    {
      "inputs": [],
      "stateMutability": "nonpayable",
      "type": "constructor"
    },
    {
      "anonymous": false,
      "inputs": [
        {
          "indexed": true,
          "internalType": "address",
          "name": "account",
          "type": "address"
        },
        {
          "indexed": true,
          "internalType": "address",
          "name": "operator",
          "type": "address"
        },
        {
          "indexed": false,
          "internalType": "bool",
          "name": "approved",
          "type": "bool"
        }
      ],
      "name": "ApprovalForAll",
      "type": "event"
    },
    {
      "anonymous": false,
      "inputs": [
        {
          "indexed": true,
          "internalType": "address",
          "name": "operator",
          "type": "address"
        },
        {
          "indexed": true,
          "internalType": "address",
          "name": "from",
          "type": "address"
        },
        {
          "indexed": true,
          "internalType": "address",
          "name": "to",
          "type": "address"
        },
        {
          "indexed": false,
          "internalType": "uint256[]",
          "name": "ids",
          "type": "uint256[]"
        },
        {
          "indexed": false,
          "internalType": "uint256[]",
          "name": "values",
          "type": "uint256[]"
        }
      ],
      "name": "TransferBatch",
      "type": "event"
    },
    {
      "anonymous": false,
      "inputs": [
        {
          "indexed": true,
          "internalType": "address",
          "name": "operator",
          "type": "address"
        },
        {
          "indexed": true,
          "internalType": "address",
          "name": "from",
          "type": "address"
        },
        {
          "indexed": true,
          "internalType": "address",
          "name": "to",
          "type": "address"
        },
        {
          "indexed": false,
          "internalType": "uint256",
          "name": "id",
          "type": "uint256"
        },
        {
          "indexed": false,
          "internalType": "uint256",
          "name": "value",
          "type": "uint256"
        }
      ],
      "name": "TransferSingle",
      "type": "event"
    },
    {
      "anonymous": false,
      "inputs": [
        {
          "indexed": false,
          "internalType": "string",
          "name": "value",
          "type": "string"
        },
        {
          "indexed": true,
          "internalType": "uint256",
          "name": "id",
          "type": "uint256"
        }
      ],
      "name": "URI",
      "type": "event"
    },
    {
      "inputs": [
        {
          "internalType": "address",
          "name": "account",
          "type": "address"
        },
        {
          "internalType": "uint256",
          "name": "id",
          "type": "uint256"
        }
      ],
      "name": "balanceOf",
      "outputs": [
        {
          "internalType": "uint256",
          "name": "",
          "type": "uint256"
        }
      ],
      "stateMutability": "view",
      "type": "function"
    },
    {
      "inputs": [
        {
          "internalType": "address[]",
          "name": "accounts",
          "type": "address[]"
        },
        {
          "internalType": "uint256[]",
          "name": "ids",
          "type": "uint256[]"
        }
      ],
      "name": "balanceOfBatch",
      "outputs": [
        {
          "internalType": "uint256[]",
          "name": "",
          "type": "uint256[]"
        }
      ],
      "stateMutability": "view",
      "type": "function"
    },
    {
      "inputs": [
        {
          "internalType": "address",
          "name": "account",
          "type": "address"
        },
        {
          "internalType": "address",
          "name": "operator",
          "type": "address"
        }
      ],
      "name": "isApprovedForAll",
      "outputs": [
        {
          "internalType": "bool",
          "name": "",
          "type": "bool"
        }
      ],
      "stateMutability": "view",
      "type": "function"
    },
    {
      "inputs": [],
      "name": "korinthiaki",
      "outputs": [
        {
          "internalType": "uint256",
          "name": "",
          "type": "uint256"
        }
      ],
      "stateMutability": "view",
      "type": "function"
    },
    {
      "inputs": [
        {
          "internalType": "address",
          "name": "from",
          "type": "address"
        },
        {
          "internalType": "address",
          "name": "to",
          "type": "address"
        },
        {
          "internalType": "uint256[]",
          "name": "ids",
          "type": "uint256[]"
        },
        {
          "internalType": "uint256[]",
          "name": "amounts",
          "type": "uint256[]"
        },
        {
          "internalType": "bytes",
          "name": "data",
          "type": "bytes"
        }
      ],
      "name": "safeBatchTransferFrom",
      "outputs": [],
      "stateMutability": "nonpayable",
      "type": "function"
    },
    {
      "inputs": [
        {
          "internalType": "address",
          "name": "from",
          "type": "address"
        },
        {
          "internalType": "address",
          "name": "to",
          "type": "address"
        },
        {
          "internalType": "uint256",
          "name": "id",
          "type": "uint256"
        },
        {
          "internalType": "uint256",
          "name": "amount",
          "type": "uint256"
        },
        {
          "internalType": "bytes",
          "name": "data",
          "type": "bytes"
        }
      ],
      "name": "safeTransferFrom",
      "outputs": [],
      "stateMutability": "nonpayable",
      "type": "function"
    },
    {
      "inputs": [
        {
          "internalType": "address",
          "name": "operator",
          "type": "address"
        },
        {
          "internalType": "bool",
          "name": "approved",
          "type": "bool"
        }
      ],
      "name": "setApprovalForAll",
      "outputs": [],
      "stateMutability": "nonpayable",
      "type": "function"
    },
    {
      "inputs": [],
      "name": "soultanina",
      "outputs": [
        {
          "internalType": "uint256",
          "name": "",
          "type": "uint256"
        }
      ],
      "stateMutability": "view",
      "type": "function"
    },
    {
      "inputs": [
        {
          "internalType": "bytes4",
          "name": "interfaceId",
          "type": "bytes4"
        }
      ],
      "name": "supportsInterface",
      "outputs": [
        {
          "internalType": "bool",
          "name": "",
          "type": "bool"
        }
      ],
      "stateMutability": "view",
      "type": "function"
    },
    {
      "inputs": [
        {
          "internalType": "uint256",
          "name": "",
          "type": "uint256"
        }
      ],
      "name": "uri",
      "outputs": [
        {
          "internalType": "string",
          "name": "",
          "type": "string"
        }
      ],
      "stateMutability": "view",
      "type": "function"
    },
    {
      "inputs": [
        {
          "internalType": "uint256",
          "name": "amount",
          "type": "uint256"
        },
        {
          "internalType": "uint256",
          "name": "token_id",
          "type": "uint256"
        }
      ],
      "name": "mint",
      "outputs": [],
      "stateMutability": "nonpayable",
      "type": "function"
    },
    {
      "inputs": [
        {
          "internalType": "uint256[]",
          "name": "amount",
          "type": "uint256[]"
        },
        {
          "internalType": "uint256[]",
          "name": "tokens_id",
          "type": "uint256[]"
        }
      ],
      "name": "mintbatch",
      "outputs": [],
      "stateMutability": "nonpayable",
      "type": "function"
    }
  ],
  "bytecode": "0x60806040523480156200001157600080fd5b506040518060400160405280600c81526020017f6578616d706c652e6a736f6e000000000000000000000000000000000000000081525062000059816200006060201b60201c565b5062000191565b8060029080519060200190620000789291906200007c565b5050565b8280546200008a906200012c565b90600052602060002090601f016020900481019282620000ae5760008555620000fa565b82601f10620000c957805160ff1916838001178555620000fa565b82800160010185558215620000fa579182015b82811115620000f9578251825591602001919060010190620000dc565b5b5090506200010991906200010d565b5090565b5b80821115620001285760008160009055506001016200010e565b5090565b600060028204905060018216806200014557607f821691505b602082108114156200015c576200015b62000162565b5b50919050565b7f4e487b7100000000000000000000000000000000000000000000000000000000600052602260045260246000fd5b612b8a80620001a16000396000f3fe608060405234801561001057600080fd5b50600436106100b35760003560e01c8063573772b711610071578063573772b7146101b0578063a22cb465146101ce578063e985e9c5146101ea578063f242432a1461021a578063ff695eaa14610236578063fff334ef14610252576100b3565b8062fdd58e146100b857806301ffc9a7146100e85780630e89341c146101185780631b2ef1ca146101485780632eb2c2d6146101645780634e1273f414610180575b600080fd5b6100d260048036038101906100cd9190611c99565b610270565b6040516100df91906126a2565b60405180910390f35b61010260048036038101906100fd9190611dad565b610339565b60405161010f9190612505565b60405180910390f35b610132600480360381019061012d9190611dff565b61041b565b60405161013f9190612520565b60405180910390f35b610162600480360381019061015d9190611e28565b6104af565b005b61017e60048036038101906101799190611b0f565b6104ce565b005b61019a60048036038101906101959190611cd5565b61056f565b6040516101a791906124ac565b60405180910390f35b6101b8610720565b6040516101c591906126a2565b60405180910390f35b6101e860048036038101906101e39190611c5d565b610725565b005b61020460048036038101906101ff9190611ad3565b61073b565b6040516102119190612505565b60405180910390f35b610234600480360381019061022f9190611bce565b6107cf565b005b610250600480360381019061024b9190611d41565b610870565b005b61025a61088f565b60405161026791906126a2565b60405180910390f35b60008073ffffffffffffffffffffffffffffffffffffffff168373ffffffffffffffffffffffffffffffffffffffff1614156102e1576040517f08c379a00000000000000000000000000000000000000000000000000000000081526004016102d890612582565b60405180910390fd5b60008083815260200190815260200160002060008473ffffffffffffffffffffffffffffffffffffffff1673ffffffffffffffffffffffffffffffffffffffff16815260200190815260200160002054905092915050565b60007fd9b67a26000000000000000000000000000000000000000000000000000000007bffffffffffffffffffffffffffffffffffffffffffffffffffffffff1916827bffffffffffffffffffffffffffffffffffffffffffffffffffffffff1916148061040457507f0e89341c000000000000000000000000000000000000000000000000000000007bffffffffffffffffffffffffffffffffffffffffffffffffffffffff1916827bffffffffffffffffffffffffffffffffffffffffffffffffffffffff1916145b80610414575061041382610894565b5b9050919050565b60606002805461042a9061291c565b80601f01602080910402602001604051908101604052809291908181526020018280546104569061291c565b80156104a35780601f10610478576101008083540402835291602001916104a3565b820191906000526020600020905b81548152906001019060200180831161048657829003601f168201915b50505050509050919050565b6104ca338284604051806020016040528060008152506108fe565b5050565b6104d6610a94565b73ffffffffffffffffffffffffffffffffffffffff168573ffffffffffffffffffffffffffffffffffffffff16148061051c575061051b85610516610a94565b61073b565b5b61055b576040517f08c379a0000000000000000000000000000000000000000000000000000000008152600401610552906125e2565b60405180910390fd5b6105688585858585610a9c565b5050505050565b606081518351146105b5576040517f08c379a00000000000000000000000000000000000000000000000000000000081526004016105ac90612642565b60405180910390fd5b6000835167ffffffffffffffff8111156105f8577f4e487b7100000000000000000000000000000000000000000000000000000000600052604160045260246000fd5b6040519080825280602002602001820160405280156106265781602001602082028036833780820191505090505b50905060005b8451811015610715576106bf858281518110610671577f4e487b7100000000000000000000000000000000000000000000000000000000600052603260045260246000fd5b60200260200101518583815181106106b2577f4e487b7100000000000000000000000000000000000000000000000000000000600052603260045260246000fd5b6020026020010151610270565b8282815181106106f8577f4e487b7100000000000000000000000000000000000000000000000000000000600052603260045260246000fd5b6020026020010181815250508061070e9061294e565b905061062c565b508091505092915050565b600081565b610737610730610a94565b8383610dfc565b5050565b6000600160008473ffffffffffffffffffffffffffffffffffffffff1673ffffffffffffffffffffffffffffffffffffffff16815260200190815260200160002060008373ffffffffffffffffffffffffffffffffffffffff1673ffffffffffffffffffffffffffffffffffffffff16815260200190815260200160002060009054906101000a900460ff16905092915050565b6107d7610a94565b73ffffffffffffffffffffffffffffffffffffffff168573ffffffffffffffffffffffffffffffffffffffff16148061081d575061081c85610817610a94565b61073b565b5b61085c576040517f08c379a0000000000000000000000000000000000000000000000000000000008152600401610853906125a2565b60405180910390fd5b6108698585858585610f69565b5050505050565b61088b338284604051806020016040528060008152506111eb565b5050565b600181565b60007f01ffc9a7000000000000000000000000000000000000000000000000000000007bffffffffffffffffffffffffffffffffffffffffffffffffffffffff1916827bffffffffffffffffffffffffffffffffffffffffffffffffffffffff1916149050919050565b600073ffffffffffffffffffffffffffffffffffffffff168473ffffffffffffffffffffffffffffffffffffffff16141561096e576040517f08c379a000000000000000000000000000000000000000000000000000000000815260040161096590612682565b60405180910390fd5b6000610978610a94565b90506109998160008761098a88611455565b61099388611455565b8761151b565b8260008086815260200190815260200160002060008773ffffffffffffffffffffffffffffffffffffffff1673ffffffffffffffffffffffffffffffffffffffff16815260200190815260200160002060008282546109f89190612810565b925050819055508473ffffffffffffffffffffffffffffffffffffffff16600073ffffffffffffffffffffffffffffffffffffffff168273ffffffffffffffffffffffffffffffffffffffff167fc3d58168c5ae7397731d063d5bbf3d657854427343f4c083240f7aacaa2d0f628787604051610a769291906126bd565b60405180910390a4610a8d81600087878787611523565b5050505050565b600033905090565b8151835114610ae0576040517f08c379a0000000000000000000000000000000000000000000000000000000008152600401610ad790612662565b60405180910390fd5b600073ffffffffffffffffffffffffffffffffffffffff168473ffffffffffffffffffffffffffffffffffffffff161415610b50576040517f08c379a0000000000000000000000000000000000000000000000000000000008152600401610b47906125c2565b60405180910390fd5b6000610b5a610a94565b9050610b6a81878787878761151b565b60005b8451811015610d67576000858281518110610bb1577f4e487b7100000000000000000000000000000000000000000000000000000000600052603260045260246000fd5b602002602001015190506000858381518110610bf6577f4e487b7100000000000000000000000000000000000000000000000000000000600052603260045260246000fd5b60200260200101519050600080600084815260200190815260200160002060008b73ffffffffffffffffffffffffffffffffffffffff1673ffffffffffffffffffffffffffffffffffffffff16815260200190815260200160002054905081811015610c97576040517f08c379a0000000000000000000000000000000000000000000000000000000008152600401610c8e90612602565b60405180910390fd5b81810360008085815260200190815260200160002060008c73ffffffffffffffffffffffffffffffffffffffff1673ffffffffffffffffffffffffffffffffffffffff168152602001908152602001600020819055508160008085815260200190815260200160002060008b73ffffffffffffffffffffffffffffffffffffffff1673ffffffffffffffffffffffffffffffffffffffff1681526020019081526020016000206000828254610d4c9190612810565b9250508190555050505080610d609061294e565b9050610b6d565b508473ffffffffffffffffffffffffffffffffffffffff168673ffffffffffffffffffffffffffffffffffffffff168273ffffffffffffffffffffffffffffffffffffffff167f4a39dc06d4c0dbc64b70af90fd698a233a518aa5d07e595d983b8c0526c8f7fb8787604051610dde9291906124ce565b60405180910390a4610df48187878787876116f3565b505050505050565b8173ffffffffffffffffffffffffffffffffffffffff168373ffffffffffffffffffffffffffffffffffffffff161415610e6b576040517f08c379a0000000000000000000000000000000000000000000000000000000008152600401610e6290612622565b60405180910390fd5b80600160008573ffffffffffffffffffffffffffffffffffffffff1673ffffffffffffffffffffffffffffffffffffffff16815260200190815260200160002060008473ffffffffffffffffffffffffffffffffffffffff1673ffffffffffffffffffffffffffffffffffffffff16815260200190815260200160002060006101000a81548160ff0219169083151502179055508173ffffffffffffffffffffffffffffffffffffffff168373ffffffffffffffffffffffffffffffffffffffff167f17307eab39ab6107e8899845ad3d59bd9653f200f220920489ca2b5937696c3183604051610f5c9190612505565b60405180910390a3505050565b600073ffffffffffffffffffffffffffffffffffffffff168473ffffffffffffffffffffffffffffffffffffffff161415610fd9576040517f08c379a0000000000000000000000000000000000000000000000000000000008152600401610fd0906125c2565b60405180910390fd5b6000610fe3610a94565b9050611003818787610ff488611455565b610ffd88611455565b8761151b565b600080600086815260200190815260200160002060008873ffffffffffffffffffffffffffffffffffffffff1673ffffffffffffffffffffffffffffffffffffffff1681526020019081526020016000205490508381101561109a576040517f08c379a000000000000000000000000000000000000000000000000000000000815260040161109190612602565b60405180910390fd5b83810360008087815260200190815260200160002060008973ffffffffffffffffffffffffffffffffffffffff1673ffffffffffffffffffffffffffffffffffffffff168152602001908152602001600020819055508360008087815260200190815260200160002060008873ffffffffffffffffffffffffffffffffffffffff1673ffffffffffffffffffffffffffffffffffffffff168152602001908152602001600020600082825461114f9190612810565b925050819055508573ffffffffffffffffffffffffffffffffffffffff168773ffffffffffffffffffffffffffffffffffffffff168373ffffffffffffffffffffffffffffffffffffffff167fc3d58168c5ae7397731d063d5bbf3d657854427343f4c083240f7aacaa2d0f6288886040516111cc9291906126bd565b60405180910390a46111e2828888888888611523565b50505050505050565b600073ffffffffffffffffffffffffffffffffffffffff168473ffffffffffffffffffffffffffffffffffffffff16141561125b576040517f08c379a000000000000000000000000000000000000000000000000000000000815260040161125290612682565b60405180910390fd5b815183511461129f576040517f08c379a000000000000000000000000000000000000000000000000000000000815260040161129690612662565b60405180910390fd5b60006112a9610a94565b90506112ba8160008787878761151b565b60005b84518110156113bf578381815181106112ff577f4e487b7100000000000000000000000000000000000000000000000000000000600052603260045260246000fd5b6020026020010151600080878481518110611343577f4e487b7100000000000000000000000000000000000000000000000000000000600052603260045260246000fd5b6020026020010151815260200190815260200160002060008873ffffffffffffffffffffffffffffffffffffffff1673ffffffffffffffffffffffffffffffffffffffff16815260200190815260200160002060008282546113a59190612810565b9250508190555080806113b79061294e565b9150506112bd565b508473ffffffffffffffffffffffffffffffffffffffff16600073ffffffffffffffffffffffffffffffffffffffff168273ffffffffffffffffffffffffffffffffffffffff167f4a39dc06d4c0dbc64b70af90fd698a233a518aa5d07e595d983b8c0526c8f7fb87876040516114379291906124ce565b60405180910390a461144e816000878787876116f3565b5050505050565b60606000600167ffffffffffffffff81111561149a577f4e487b7100000000000000000000000000000000000000000000000000000000600052604160045260246000fd5b6040519080825280602002602001820160405280156114c85781602001602082028036833780820191505090505b5090508281600081518110611506577f4e487b7100000000000000000000000000000000000000000000000000000000600052603260045260246000fd5b60200260200101818152505080915050919050565b505050505050565b6115428473ffffffffffffffffffffffffffffffffffffffff166118c3565b156116eb578373ffffffffffffffffffffffffffffffffffffffff1663f23a6e6187878686866040518663ffffffff1660e01b8152600401611588959493929190612452565b602060405180830381600087803b1580156115a257600080fd5b505af19250505080156115d357506040513d601f19601f820116820180604052508101906115d09190611dd6565b60015b611662576115df612a42565b806115ea5750611627565b806040517f08c379a000000000000000000000000000000000000000000000000000000000815260040161161e9190612520565b60405180910390fd5b6040517f08c379a000000000000000000000000000000000000000000000000000000000815260040161165990612542565b60405180910390fd5b63f23a6e6160e01b7bffffffffffffffffffffffffffffffffffffffffffffffffffffffff1916817bffffffffffffffffffffffffffffffffffffffffffffffffffffffff1916146116e9576040517f08c379a00000000000000000000000000000000000000000000000000000000081526004016116e090612562565b60405180910390fd5b505b505050505050565b6117128473ffffffffffffffffffffffffffffffffffffffff166118c3565b156118bb578373ffffffffffffffffffffffffffffffffffffffff1663bc197c8187878686866040518663ffffffff1660e01b81526004016117589594939291906123ea565b602060405180830381600087803b15801561177257600080fd5b505af19250505080156117a357506040513d601f19601f820116820180604052508101906117a09190611dd6565b60015b611832576117af612a42565b806117ba57506117f7565b806040517f08c379a00000000000000000000000000000000000000000000000000000000081526004016117ee9190612520565b60405180910390fd5b6040517f08c379a000000000000000000000000000000000000000000000000000000000815260040161182990612542565b60405180910390fd5b63bc197c8160e01b7bffffffffffffffffffffffffffffffffffffffffffffffffffffffff1916817bffffffffffffffffffffffffffffffffffffffffffffffffffffffff1916146118b9576040517f08c379a00000000000000000000000000000000000000000000000000000000081526004016118b090612562565b60405180910390fd5b505b505050505050565b600080823b905060008111915050919050565b60006118e96118e484612717565b6126e6565b9050808382526020820190508285602086028201111561190857600080fd5b60005b85811015611938578161191e88826119ec565b84526020840193506020830192505060018101905061190b565b5050509392505050565b600061195561195084612743565b6126e6565b9050808382526020820190508285602086028201111561197457600080fd5b60005b858110156119a4578161198a8882611abe565b845260208401935060208301925050600181019050611977565b5050509392505050565b60006119c16119bc8461276f565b6126e6565b9050828152602081018484840111156119d957600080fd5b6119e48482856128da565b509392505050565b6000813590506119fb81612af8565b92915050565b600082601f830112611a1257600080fd5b8135611a228482602086016118d6565b91505092915050565b600082601f830112611a3c57600080fd5b8135611a4c848260208601611942565b91505092915050565b600081359050611a6481612b0f565b92915050565b600081359050611a7981612b26565b92915050565b600081519050611a8e81612b26565b92915050565b600082601f830112611aa557600080fd5b8135611ab58482602086016119ae565b91505092915050565b600081359050611acd81612b3d565b92915050565b60008060408385031215611ae657600080fd5b6000611af4858286016119ec565b9250506020611b05858286016119ec565b9150509250929050565b600080600080600060a08688031215611b2757600080fd5b6000611b35888289016119ec565b9550506020611b46888289016119ec565b945050604086013567ffffffffffffffff811115611b6357600080fd5b611b6f88828901611a2b565b935050606086013567ffffffffffffffff811115611b8c57600080fd5b611b9888828901611a2b565b925050608086013567ffffffffffffffff811115611bb557600080fd5b611bc188828901611a94565b9150509295509295909350565b600080600080600060a08688031215611be657600080fd5b6000611bf4888289016119ec565b9550506020611c05888289016119ec565b9450506040611c1688828901611abe565b9350506060611c2788828901611abe565b925050608086013567ffffffffffffffff811115611c4457600080fd5b611c5088828901611a94565b9150509295509295909350565b60008060408385031215611c7057600080fd5b6000611c7e858286016119ec565b9250506020611c8f85828601611a55565b9150509250929050565b60008060408385031215611cac57600080fd5b6000611cba858286016119ec565b9250506020611ccb85828601611abe565b9150509250929050565b60008060408385031215611ce857600080fd5b600083013567ffffffffffffffff811115611d0257600080fd5b611d0e85828601611a01565b925050602083013567ffffffffffffffff811115611d2b57600080fd5b611d3785828601611a2b565b9150509250929050565b60008060408385031215611d5457600080fd5b600083013567ffffffffffffffff811115611d6e57600080fd5b611d7a85828601611a2b565b925050602083013567ffffffffffffffff811115611d9757600080fd5b611da385828601611a2b565b9150509250929050565b600060208284031215611dbf57600080fd5b6000611dcd84828501611a6a565b91505092915050565b600060208284031215611de857600080fd5b6000611df684828501611a7f565b91505092915050565b600060208284031215611e1157600080fd5b6000611e1f84828501611abe565b91505092915050565b60008060408385031215611e3b57600080fd5b6000611e4985828601611abe565b9250506020611e5a85828601611abe565b9150509250929050565b6000611e7083836123cc565b60208301905092915050565b611e8581612866565b82525050565b6000611e96826127af565b611ea081856127dd565b9350611eab8361279f565b8060005b83811015611edc578151611ec38882611e64565b9750611ece836127d0565b925050600181019050611eaf565b5085935050505092915050565b611ef281612878565b82525050565b6000611f03826127ba565b611f0d81856127ee565b9350611f1d8185602086016128e9565b611f2681612a24565b840191505092915050565b6000611f3c826127c5565b611f4681856127ff565b9350611f568185602086016128e9565b611f5f81612a24565b840191505092915050565b6000611f776034836127ff565b91507f455243313135353a207472616e7366657220746f206e6f6e204552433131353560008301527f526563656976657220696d706c656d656e7465720000000000000000000000006020830152604082019050919050565b6000611fdd6028836127ff565b91507f455243313135353a204552433131353552656365697665722072656a6563746560008301527f6420746f6b656e730000000000000000000000000000000000000000000000006020830152604082019050919050565b6000612043602b836127ff565b91507f455243313135353a2062616c616e636520717565727920666f7220746865207a60008301527f65726f20616464726573730000000000000000000000000000000000000000006020830152604082019050919050565b60006120a96029836127ff565b91507f455243313135353a2063616c6c6572206973206e6f74206f776e6572206e6f7260008301527f20617070726f76656400000000000000000000000000000000000000000000006020830152604082019050919050565b600061210f6025836127ff565b91507f455243313135353a207472616e7366657220746f20746865207a65726f20616460008301527f64726573730000000000000000000000000000000000000000000000000000006020830152604082019050919050565b60006121756032836127ff565b91507f455243313135353a207472616e736665722063616c6c6572206973206e6f742060008301527f6f776e6572206e6f7220617070726f76656400000000000000000000000000006020830152604082019050919050565b60006121db602a836127ff565b91507f455243313135353a20696e73756666696369656e742062616c616e636520666f60008301527f72207472616e73666572000000000000000000000000000000000000000000006020830152604082019050919050565b60006122416029836127ff565b91507f455243313135353a2073657474696e6720617070726f76616c2073746174757360008301527f20666f722073656c6600000000000000000000000000000000000000000000006020830152604082019050919050565b60006122a76029836127ff565b91507f455243313135353a206163636f756e747320616e6420696473206c656e67746860008301527f206d69736d6174636800000000000000000000000000000000000000000000006020830152604082019050919050565b600061230d6028836127ff565b91507f455243313135353a2069647320616e6420616d6f756e7473206c656e6774682060008301527f6d69736d617463680000000000000000000000000000000000000000000000006020830152604082019050919050565b60006123736021836127ff565b91507f455243313135353a206d696e7420746f20746865207a65726f2061646472657360008301527f73000000000000000000000000000000000000000000000000000000000000006020830152604082019050919050565b6123d5816128d0565b82525050565b6123e4816128d0565b82525050565b600060a0820190506123ff6000830188611e7c565b61240c6020830187611e7c565b818103604083015261241e8186611e8b565b905081810360608301526124328185611e8b565b905081810360808301526124468184611ef8565b90509695505050505050565b600060a0820190506124676000830188611e7c565b6124746020830187611e7c565b61248160408301866123db565b61248e60608301856123db565b81810360808301526124a08184611ef8565b90509695505050505050565b600060208201905081810360008301526124c68184611e8b565b905092915050565b600060408201905081810360008301526124e88185611e8b565b905081810360208301526124fc8184611e8b565b90509392505050565b600060208201905061251a6000830184611ee9565b92915050565b6000602082019050818103600083015261253a8184611f31565b905092915050565b6000602082019050818103600083015261255b81611f6a565b9050919050565b6000602082019050818103600083015261257b81611fd0565b9050919050565b6000602082019050818103600083015261259b81612036565b9050919050565b600060208201905081810360008301526125bb8161209c565b9050919050565b600060208201905081810360008301526125db81612102565b9050919050565b600060208201905081810360008301526125fb81612168565b9050919050565b6000602082019050818103600083015261261b816121ce565b9050919050565b6000602082019050818103600083015261263b81612234565b9050919050565b6000602082019050818103600083015261265b8161229a565b9050919050565b6000602082019050818103600083015261267b81612300565b9050919050565b6000602082019050818103600083015261269b81612366565b9050919050565b60006020820190506126b760008301846123db565b92915050565b60006040820190506126d260008301856123db565b6126df60208301846123db565b9392505050565b6000604051905081810181811067ffffffffffffffff8211171561270d5761270c6129f5565b5b8060405250919050565b600067ffffffffffffffff821115612732576127316129f5565b5b602082029050602081019050919050565b600067ffffffffffffffff82111561275e5761275d6129f5565b5b602082029050602081019050919050565b600067ffffffffffffffff82111561278a576127896129f5565b5b601f19601f8301169050602081019050919050565b6000819050602082019050919050565b600081519050919050565b600081519050919050565b600081519050919050565b6000602082019050919050565b600082825260208201905092915050565b600082825260208201905092915050565b600082825260208201905092915050565b600061281b826128d0565b9150612826836128d0565b9250827fffffffffffffffffffffffffffffffffffffffffffffffffffffffffffffffff0382111561285b5761285a612997565b5b828201905092915050565b6000612871826128b0565b9050919050565b60008115159050919050565b60007fffffffff0000000000000000000000000000000000000000000000000000000082169050919050565b600073ffffffffffffffffffffffffffffffffffffffff82169050919050565b6000819050919050565b82818337600083830152505050565b60005b838110156129075780820151818401526020810190506128ec565b83811115612916576000848401525b50505050565b6000600282049050600182168061293457607f821691505b60208210811415612948576129476129c6565b5b50919050565b6000612959826128d0565b91507fffffffffffffffffffffffffffffffffffffffffffffffffffffffffffffffff82141561298c5761298b612997565b5b600182019050919050565b7f4e487b7100000000000000000000000000000000000000000000000000000000600052601160045260246000fd5b7f4e487b7100000000000000000000000000000000000000000000000000000000600052602260045260246000fd5b7f4e487b7100000000000000000000000000000000000000000000000000000000600052604160045260246000fd5b6000601f19601f8301169050919050565b60008160e01c9050919050565b600060443d1015612a5257612af5565b60046000803e612a63600051612a35565b6308c379a08114612a745750612af5565b60405160043d036004823e80513d602482011167ffffffffffffffff82111715612aa057505050612af5565b808201805167ffffffffffffffff811115612abf575050505050612af5565b8060208301013d8501811115612ada57505050505050612af5565b612ae382612a24565b60208401016040528296505050505050505b90565b612b0181612866565b8114612b0c57600080fd5b50565b612b1881612878565b8114612b2357600080fd5b50565b612b2f81612884565b8114612b3a57600080fd5b50565b612b46816128d0565b8114612b5157600080fd5b5056fea26469706673582212208bb334ee31f3b484acffa64544691eb1ed2ac31fccb9251ef299ba951d11672d64736f6c63430008000033",
  "immutableReferences": {},
  "source": "pragma solidity >=0.4.22 <0.9.0;\n\nimport \"openzeppelin-solidity/contracts/token/ERC1155/ERC1155.sol\";\n\ncontract SolutionERC1155 is ERC1155{\n\n    uint public constant soultanina=0;\n    uint public constant korinthiaki=1;\n\n    constructor() ERC1155(\"example.json\"){}\n\n    //just mine new token\n    function mint(uint amount,uint token_id) public{\n        _mint(msg.sender,token_id, amount,\"\");\n    }\n\n    function mintbatch(uint[] memory amount,uint[] memory tokens_id) public{\n        _mintBatch(msg.sender,tokens_id, amount,\"\");\n    }\n\n}",
  "sourcePath": "/home/andrsend/Desktop/AgroToken/contracts/SolutionERC1155.sol",
  "compiler": {
    "name": "solc",
    "version": "0.8.0+commit.c7dfd78e.Emscripten.clang"
  },
  "schemaVersion": "3.4.4",
  "updatedAt": "2022-03-01T10:42:04.485Z",
  "devdoc": {
    "kind": "dev",
    "methods": {
      "balanceOf(address,uint256)": {
        "details": "See {IERC1155-balanceOf}. Requirements: - `account` cannot be the zero address."
      },
      "balanceOfBatch(address[],uint256[])": {
        "details": "See {IERC1155-balanceOfBatch}. Requirements: - `accounts` and `ids` must have the same length."
      },
      "isApprovedForAll(address,address)": {
        "details": "See {IERC1155-isApprovedForAll}."
      },
      "safeBatchTransferFrom(address,address,uint256[],uint256[],bytes)": {
        "details": "See {IERC1155-safeBatchTransferFrom}."
      },
      "safeTransferFrom(address,address,uint256,uint256,bytes)": {
        "details": "See {IERC1155-safeTransferFrom}."
      },
      "setApprovalForAll(address,bool)": {
        "details": "See {IERC1155-setApprovalForAll}."
      },
      "supportsInterface(bytes4)": {
        "details": "See {IERC165-supportsInterface}."
      },
      "uri(uint256)": {
        "details": "See {IERC1155MetadataURI-uri}. This implementation returns the same URI for *all* token types. It relies on the token type ID substitution mechanism https://eips.ethereum.org/EIPS/eip-1155#metadata[defined in the EIP]. Clients calling this function must replace the `\\{id\\}` substring with the actual token type ID."
      }
    },
    "version": 1
  },
  "userdoc": {
    "kind": "user",
    "methods": {},
    "version": 1
  }
}