{
  "contractName": "SolutionERC721",
  "abi": [
    {
      "inputs": [
        {
          "internalType": "string",
          "name": "_name",
          "type": "string"
        },
        {
          "internalType": "string",
          "name": "_symbol",
          "type": "string"
        }
      ],
      "stateMutability": "nonpayable",
      "type": "constructor"
    },
    {
      "anonymous": false,
      "inputs": [
        {
          "indexed": true,
          "internalType": "address",
          "name": "owner",
          "type": "address"
        },
        {
          "indexed": true,
          "internalType": "address",
          "name": "approved",
          "type": "address"
        },
        {
          "indexed": true,
          "internalType": "uint256",
          "name": "tokenId",
          "type": "uint256"
        }
      ],
      "name": "Approval",
      "type": "event"
    },
    {
      "anonymous": false,
      "inputs": [
        {
          "indexed": true,
          "internalType": "address",
          "name": "owner",
          "type": "address"
        },
        {
          "indexed": true,
          "internalType": "address",
          "name": "operator",
          "type": "address"
        },
        {
          "indexed": false,
          "internalType": "bool",
          "name": "approved",
          "type": "bool"
        }
      ],
      "name": "ApprovalForAll",
      "type": "event"
    },
    {
      "anonymous": false,
      "inputs": [
        {
          "indexed": true,
          "internalType": "address",
          "name": "from",
          "type": "address"
        },
        {
          "indexed": true,
          "internalType": "address",
          "name": "to",
          "type": "address"
        },
        {
          "indexed": true,
          "internalType": "uint256",
          "name": "tokenId",
          "type": "uint256"
        }
      ],
      "name": "Transfer",
      "type": "event"
    },
    {
      "anonymous": false,
      "inputs": [
        {
          "indexed": false,
          "internalType": "bytes32",
          "name": "info",
          "type": "bytes32"
        }
      ],
      "name": "status",
      "type": "event"
    },
    {
      "anonymous": false,
      "inputs": [
        {
          "indexed": false,
          "internalType": "uint256",
          "name": "uri",
          "type": "uint256"
        },
        {
          "indexed": false,
          "internalType": "uint256",
          "name": "batchno",
          "type": "uint256"
        }
      ],
      "name": "tokeninfo",
      "type": "event"
    },
    {
      "inputs": [
        {
          "internalType": "address",
          "name": "to",
          "type": "address"
        },
        {
          "internalType": "uint256",
          "name": "tokenId",
          "type": "uint256"
        }
      ],
      "name": "approve",
      "outputs": [],
      "stateMutability": "nonpayable",
      "type": "function"
    },
    {
      "inputs": [
        {
          "internalType": "address",
          "name": "owner",
          "type": "address"
        }
      ],
      "name": "balanceOf",
      "outputs": [
        {
          "internalType": "uint256",
          "name": "",
          "type": "uint256"
        }
      ],
      "stateMutability": "view",
      "type": "function",
      "constant": true
    },
    {
      "inputs": [
        {
          "internalType": "uint256",
          "name": "tokenId",
          "type": "uint256"
        }
      ],
      "name": "getApproved",
      "outputs": [
        {
          "internalType": "address",
          "name": "",
          "type": "address"
        }
      ],
      "stateMutability": "view",
      "type": "function",
      "constant": true
    },
    {
      "inputs": [
        {
          "internalType": "address",
          "name": "owner",
          "type": "address"
        },
        {
          "internalType": "address",
          "name": "operator",
          "type": "address"
        }
      ],
      "name": "isApprovedForAll",
      "outputs": [
        {
          "internalType": "bool",
          "name": "",
          "type": "bool"
        }
      ],
      "stateMutability": "view",
      "type": "function",
      "constant": true
    },
    {
      "inputs": [],
      "name": "name",
      "outputs": [
        {
          "internalType": "string",
          "name": "",
          "type": "string"
        }
      ],
      "stateMutability": "view",
      "type": "function",
      "constant": true
    },
    {
      "inputs": [
        {
          "internalType": "uint256",
          "name": "tokenId",
          "type": "uint256"
        }
      ],
      "name": "ownerOf",
      "outputs": [
        {
          "internalType": "address",
          "name": "",
          "type": "address"
        }
      ],
      "stateMutability": "view",
      "type": "function",
      "constant": true
    },
    {
      "inputs": [
        {
          "internalType": "address",
          "name": "from",
          "type": "address"
        },
        {
          "internalType": "address",
          "name": "to",
          "type": "address"
        },
        {
          "internalType": "uint256",
          "name": "tokenId",
          "type": "uint256"
        }
      ],
      "name": "safeTransferFrom",
      "outputs": [],
      "stateMutability": "nonpayable",
      "type": "function"
    },
    {
      "inputs": [
        {
          "internalType": "address",
          "name": "from",
          "type": "address"
        },
        {
          "internalType": "address",
          "name": "to",
          "type": "address"
        },
        {
          "internalType": "uint256",
          "name": "tokenId",
          "type": "uint256"
        },
        {
          "internalType": "bytes",
          "name": "_data",
          "type": "bytes"
        }
      ],
      "name": "safeTransferFrom",
      "outputs": [],
      "stateMutability": "nonpayable",
      "type": "function"
    },
    {
      "inputs": [
        {
          "internalType": "address",
          "name": "operator",
          "type": "address"
        },
        {
          "internalType": "bool",
          "name": "approved",
          "type": "bool"
        }
      ],
      "name": "setApprovalForAll",
      "outputs": [],
      "stateMutability": "nonpayable",
      "type": "function"
    },
    {
      "inputs": [
        {
          "internalType": "bytes4",
          "name": "interfaceId",
          "type": "bytes4"
        }
      ],
      "name": "supportsInterface",
      "outputs": [
        {
          "internalType": "bool",
          "name": "",
          "type": "bool"
        }
      ],
      "stateMutability": "view",
      "type": "function",
      "constant": true
    },
    {
      "inputs": [],
      "name": "symbol",
      "outputs": [
        {
          "internalType": "string",
          "name": "",
          "type": "string"
        }
      ],
      "stateMutability": "view",
      "type": "function",
      "constant": true
    },
    {
      "inputs": [
        {
          "internalType": "uint256",
          "name": "tokenId",
          "type": "uint256"
        }
      ],
      "name": "tokenURI",
      "outputs": [
        {
          "internalType": "string",
          "name": "",
          "type": "string"
        }
      ],
      "stateMutability": "view",
      "type": "function",
      "constant": true
    },
    {
      "inputs": [
        {
          "internalType": "address",
          "name": "from",
          "type": "address"
        },
        {
          "internalType": "address",
          "name": "to",
          "type": "address"
        },
        {
          "internalType": "uint256",
          "name": "tokenId",
          "type": "uint256"
        }
      ],
      "name": "transferFrom",
      "outputs": [],
      "stateMutability": "nonpayable",
      "type": "function"
    },
    {
      "inputs": [
        {
          "internalType": "uint256",
          "name": "uri",
          "type": "uint256"
        },
        {
          "internalType": "uint256",
          "name": "batchno",
          "type": "uint256"
        }
      ],
      "name": "mint",
      "outputs": [],
      "stateMutability": "nonpayable",
      "type": "function"
    },
    {
      "inputs": [
        {
          "internalType": "uint256",
          "name": "tokenid",
          "type": "uint256"
        },
        {
          "internalType": "bytes32",
          "name": "info",
          "type": "bytes32"
        }
      ],
      "name": "del",
      "outputs": [],
      "stateMutability": "nonpayable",
      "type": "function"
    }
  ],
  "bytecode": "0x60806040523480156200001157600080fd5b5060405162002bc738038062002bc7833981810160405281019062000037919062000197565b818181600090805190602001906200005192919062000075565b5080600190805190602001906200006a92919062000075565b50505050506200033b565b8280546200008390620002a7565b90600052602060002090601f016020900481019282620000a75760008555620000f3565b82601f10620000c257805160ff1916838001178555620000f3565b82800160010185558215620000f3579182015b82811115620000f2578251825591602001919060010190620000d5565b5b50905062000102919062000106565b5090565b5b808211156200012157600081600090555060010162000107565b5090565b60006200013c62000136846200023e565b6200020a565b9050828152602081018484840111156200015557600080fd5b6200016284828562000271565b509392505050565b600082601f8301126200017c57600080fd5b81516200018e84826020860162000125565b91505092915050565b60008060408385031215620001ab57600080fd5b600083015167ffffffffffffffff811115620001c657600080fd5b620001d4858286016200016a565b925050602083015167ffffffffffffffff811115620001f257600080fd5b62000200858286016200016a565b9150509250929050565b6000604051905081810181811067ffffffffffffffff821117156200023457620002336200030c565b5b8060405250919050565b600067ffffffffffffffff8211156200025c576200025b6200030c565b5b601f19601f8301169050602081019050919050565b60005b838110156200029157808201518184015260208101905062000274565b83811115620002a1576000848401525b50505050565b60006002820490506001821680620002c057607f821691505b60208210811415620002d757620002d6620002dd565b5b50919050565b7f4e487b7100000000000000000000000000000000000000000000000000000000600052602260045260246000fd5b7f4e487b7100000000000000000000000000000000000000000000000000000000600052604160045260246000fd5b61287c806200034b6000396000f3fe608060405234801561001057600080fd5b50600436106100f55760003560e01c80636352211e11610097578063b88d4fde11610066578063b88d4fde14610282578063c87b56dd1461029e578063e1773fb9146102ce578063e985e9c5146102ea576100f5565b80636352211e146101e857806370a082311461021857806395d89b4114610248578063a22cb46514610266576100f5565b8063095ea7b3116100d3578063095ea7b3146101785780631b2ef1ca1461019457806323b872dd146101b057806342842e0e146101cc576100f5565b806301ffc9a7146100fa57806306fdde031461012a578063081812fc14610148575b600080fd5b610114600480360381019061010f9190611a60565b61031a565b60405161012191906121df565b60405180910390f35b6101326103fc565b60405161013f9190612215565b60405180910390f35b610162600480360381019061015d9190611ab2565b61048e565b60405161016f9190612178565b60405180910390f35b610192600480360381019061018d9190611a24565b610513565b005b6101ae60048036038101906101a99190611b17565b61062b565b005b6101ca60048036038101906101c5919061191e565b610674565b005b6101e660048036038101906101e1919061191e565b6106d4565b005b61020260048036038101906101fd9190611ab2565b6106f4565b60405161020f9190612178565b60405180910390f35b610232600480360381019061022d91906118b9565b6107a6565b60405161023f91906123f7565b60405180910390f35b61025061085e565b60405161025d9190612215565b60405180910390f35b610280600480360381019061027b91906119e8565b6108f0565b005b61029c6004803603810190610297919061196d565b610906565b005b6102b860048036038101906102b39190611ab2565b610968565b6040516102c59190612215565b60405180910390f35b6102e860048036038101906102e39190611adb565b610a0f565b005b61030460048036038101906102ff91906118e2565b610a53565b60405161031191906121df565b60405180910390f35b60007f80ac58cd000000000000000000000000000000000000000000000000000000007bffffffffffffffffffffffffffffffffffffffffffffffffffffffff1916827bffffffffffffffffffffffffffffffffffffffffffffffffffffffff191614806103e557507f5b5e139f000000000000000000000000000000000000000000000000000000007bffffffffffffffffffffffffffffffffffffffffffffffffffffffff1916827bffffffffffffffffffffffffffffffffffffffffffffffffffffffff1916145b806103f557506103f482610ae7565b5b9050919050565b60606000805461040b9061265a565b80601f01602080910402602001604051908101604052809291908181526020018280546104379061265a565b80156104845780601f1061045957610100808354040283529160200191610484565b820191906000526020600020905b81548152906001019060200180831161046757829003601f168201915b5050505050905090565b600061049982610b51565b6104d8576040517f08c379a00000000000000000000000000000000000000000000000000000000081526004016104cf90612357565b60405180910390fd5b6004600083815260200190815260200160002060009054906101000a900473ffffffffffffffffffffffffffffffffffffffff169050919050565b600061051e826106f4565b90508073ffffffffffffffffffffffffffffffffffffffff168373ffffffffffffffffffffffffffffffffffffffff16141561058f576040517f08c379a0000000000000000000000000000000000000000000000000000000008152600401610586906123b7565b60405180910390fd5b8073ffffffffffffffffffffffffffffffffffffffff166105ae610bbd565b73ffffffffffffffffffffffffffffffffffffffff1614806105dd57506105dc816105d7610bbd565b610a53565b5b61061c576040517f08c379a0000000000000000000000000000000000000000000000000000000008152600401610613906122d7565b60405180910390fd5b6106268383610bc5565b505050565b61063733600654610c7e565b7f205f0c7b011911fa6deaa574578f6d3e47bf1977032dc6ebf0263e6f10a7ffea8282604051610668929190612412565b60405180910390a15050565b61068561067f610bbd565b82610e4c565b6106c4576040517f08c379a00000000000000000000000000000000000000000000000000000000081526004016106bb906123d7565b60405180910390fd5b6106cf838383610f2a565b505050565b6106ef83838360405180602001604052806000815250610906565b505050565b6000806002600084815260200190815260200160002060009054906101000a900473ffffffffffffffffffffffffffffffffffffffff169050600073ffffffffffffffffffffffffffffffffffffffff168173ffffffffffffffffffffffffffffffffffffffff16141561079d576040517f08c379a000000000000000000000000000000000000000000000000000000000815260040161079490612317565b60405180910390fd5b80915050919050565b60008073ffffffffffffffffffffffffffffffffffffffff168273ffffffffffffffffffffffffffffffffffffffff161415610817576040517f08c379a000000000000000000000000000000000000000000000000000000000815260040161080e906122f7565b60405180910390fd5b600360008373ffffffffffffffffffffffffffffffffffffffff1673ffffffffffffffffffffffffffffffffffffffff168152602001908152602001600020549050919050565b60606001805461086d9061265a565b80601f01602080910402602001604051908101604052809291908181526020018280546108999061265a565b80156108e65780601f106108bb576101008083540402835291602001916108e6565b820191906000526020600020905b8154815290600101906020018083116108c957829003601f168201915b5050505050905090565b6109026108fb610bbd565b8383611186565b5050565b610917610911610bbd565b83610e4c565b610956576040517f08c379a000000000000000000000000000000000000000000000000000000000815260040161094d906123d7565b60405180910390fd5b610962848484846112f3565b50505050565b606061097382610b51565b6109b2576040517f08c379a00000000000000000000000000000000000000000000000000000000081526004016109a990612397565b60405180910390fd5b60006109bc61134f565b905060008151116109dc5760405180602001604052806000815250610a07565b806109e684611366565b6040516020016109f7929190612154565b6040516020818303038152906040525b915050919050565b610a1882611513565b7f52ad0d5e1bb665314ebc5c0d9158c3d9ad6dd5dcee0d0b78743706457565159581604051610a4791906121fa565b60405180910390a15050565b6000600560008473ffffffffffffffffffffffffffffffffffffffff1673ffffffffffffffffffffffffffffffffffffffff16815260200190815260200160002060008373ffffffffffffffffffffffffffffffffffffffff1673ffffffffffffffffffffffffffffffffffffffff16815260200190815260200160002060009054906101000a900460ff16905092915050565b60007f01ffc9a7000000000000000000000000000000000000000000000000000000007bffffffffffffffffffffffffffffffffffffffffffffffffffffffff1916827bffffffffffffffffffffffffffffffffffffffffffffffffffffffff1916149050919050565b60008073ffffffffffffffffffffffffffffffffffffffff166002600084815260200190815260200160002060009054906101000a900473ffffffffffffffffffffffffffffffffffffffff1673ffffffffffffffffffffffffffffffffffffffff1614159050919050565b600033905090565b816004600083815260200190815260200160002060006101000a81548173ffffffffffffffffffffffffffffffffffffffff021916908373ffffffffffffffffffffffffffffffffffffffff160217905550808273ffffffffffffffffffffffffffffffffffffffff16610c38836106f4565b73ffffffffffffffffffffffffffffffffffffffff167f8c5be1e5ebec7d5bd14f71427d1e84f3dd0314c0f7b2291e5b200ac8c7c3b92560405160405180910390a45050565b600073ffffffffffffffffffffffffffffffffffffffff168273ffffffffffffffffffffffffffffffffffffffff161415610cee576040517f08c379a0000000000000000000000000000000000000000000000000000000008152600401610ce590612337565b60405180910390fd5b610cf781610b51565b15610d37576040517f08c379a0000000000000000000000000000000000000000000000000000000008152600401610d2e90612257565b60405180910390fd5b610d4360008383611624565b6001600360008473ffffffffffffffffffffffffffffffffffffffff1673ffffffffffffffffffffffffffffffffffffffff1681526020019081526020016000206000828254610d9391906124df565b92505081905550816002600083815260200190815260200160002060006101000a81548173ffffffffffffffffffffffffffffffffffffffff021916908373ffffffffffffffffffffffffffffffffffffffff160217905550808273ffffffffffffffffffffffffffffffffffffffff16600073ffffffffffffffffffffffffffffffffffffffff167fddf252ad1be2c89b69c2b068fc378daa952ba7f163c4a11628f55a4df523b3ef60405160405180910390a45050565b6000610e5782610b51565b610e96576040517f08c379a0000000000000000000000000000000000000000000000000000000008152600401610e8d906122b7565b60405180910390fd5b6000610ea1836106f4565b90508073ffffffffffffffffffffffffffffffffffffffff168473ffffffffffffffffffffffffffffffffffffffff161480610f1057508373ffffffffffffffffffffffffffffffffffffffff16610ef88461048e565b73ffffffffffffffffffffffffffffffffffffffff16145b80610f215750610f208185610a53565b5b91505092915050565b8273ffffffffffffffffffffffffffffffffffffffff16610f4a826106f4565b73ffffffffffffffffffffffffffffffffffffffff1614610fa0576040517f08c379a0000000000000000000000000000000000000000000000000000000008152600401610f9790612377565b60405180910390fd5b600073ffffffffffffffffffffffffffffffffffffffff168273ffffffffffffffffffffffffffffffffffffffff161415611010576040517f08c379a000000000000000000000000000000000000000000000000000000000815260040161100790612277565b60405180910390fd5b61101b838383611624565b611026600082610bc5565b6001600360008573ffffffffffffffffffffffffffffffffffffffff1673ffffffffffffffffffffffffffffffffffffffff16815260200190815260200160002060008282546110769190612566565b925050819055506001600360008473ffffffffffffffffffffffffffffffffffffffff1673ffffffffffffffffffffffffffffffffffffffff16815260200190815260200160002060008282546110cd91906124df565b92505081905550816002600083815260200190815260200160002060006101000a81548173ffffffffffffffffffffffffffffffffffffffff021916908373ffffffffffffffffffffffffffffffffffffffff160217905550808273ffffffffffffffffffffffffffffffffffffffff168473ffffffffffffffffffffffffffffffffffffffff167fddf252ad1be2c89b69c2b068fc378daa952ba7f163c4a11628f55a4df523b3ef60405160405180910390a4505050565b8173ffffffffffffffffffffffffffffffffffffffff168373ffffffffffffffffffffffffffffffffffffffff1614156111f5576040517f08c379a00000000000000000000000000000000000000000000000000000000081526004016111ec90612297565b60405180910390fd5b80600560008573ffffffffffffffffffffffffffffffffffffffff1673ffffffffffffffffffffffffffffffffffffffff16815260200190815260200160002060008473ffffffffffffffffffffffffffffffffffffffff1673ffffffffffffffffffffffffffffffffffffffff16815260200190815260200160002060006101000a81548160ff0219169083151502179055508173ffffffffffffffffffffffffffffffffffffffff168373ffffffffffffffffffffffffffffffffffffffff167f17307eab39ab6107e8899845ad3d59bd9653f200f220920489ca2b5937696c31836040516112e691906121df565b60405180910390a3505050565b6112fe848484610f2a565b61130a84848484611629565b611349576040517f08c379a000000000000000000000000000000000000000000000000000000000815260040161134090612237565b60405180910390fd5b50505050565b606060405180602001604052806000815250905090565b606060008214156113ae576040518060400160405280600181526020017f3000000000000000000000000000000000000000000000000000000000000000815250905061150e565b600082905060005b600082146113e05780806113c99061268c565b915050600a826113d99190612535565b91506113b6565b60008167ffffffffffffffff811115611422577f4e487b7100000000000000000000000000000000000000000000000000000000600052604160045260246000fd5b6040519080825280601f01601f1916602001820160405280156114545781602001600182028036833780820191505090505b5090505b600085146115075760018261146d9190612566565b9150600a8561147c91906126d5565b603061148891906124df565b60f81b8183815181106114c4577f4e487b7100000000000000000000000000000000000000000000000000000000600052603260045260246000fd5b60200101907effffffffffffffffffffffffffffffffffffffffffffffffffffffffffffff1916908160001a905350600a856115009190612535565b9450611458565b8093505050505b919050565b600061151e826106f4565b905061152c81600084611624565b611537600083610bc5565b6001600360008373ffffffffffffffffffffffffffffffffffffffff1673ffffffffffffffffffffffffffffffffffffffff16815260200190815260200160002060008282546115879190612566565b925050819055506002600083815260200190815260200160002060006101000a81549073ffffffffffffffffffffffffffffffffffffffff021916905581600073ffffffffffffffffffffffffffffffffffffffff168273ffffffffffffffffffffffffffffffffffffffff167fddf252ad1be2c89b69c2b068fc378daa952ba7f163c4a11628f55a4df523b3ef60405160405180910390a45050565b505050565b600061164a8473ffffffffffffffffffffffffffffffffffffffff166117c0565b156117b3578373ffffffffffffffffffffffffffffffffffffffff1663150b7a02611673610bbd565b8786866040518563ffffffff1660e01b81526004016116959493929190612193565b602060405180830381600087803b1580156116af57600080fd5b505af19250505080156116e057506040513d601f19601f820116820180604052508101906116dd9190611a89565b60015b611763573d8060008114611710576040519150601f19603f3d011682016040523d82523d6000602084013e611715565b606091505b5060008151141561175b576040517f08c379a000000000000000000000000000000000000000000000000000000000815260040161175290612237565b60405180910390fd5b805181602001fd5b63150b7a0260e01b7bffffffffffffffffffffffffffffffffffffffffffffffffffffffff1916817bffffffffffffffffffffffffffffffffffffffffffffffffffffffff1916149150506117b8565b600190505b949350505050565b600080823b905060008111915050919050565b60006117e66117e18461246c565b61243b565b9050828152602081018484840111156117fe57600080fd5b611809848285612618565b509392505050565b600081359050611820816127d3565b92915050565b600081359050611835816127ea565b92915050565b60008135905061184a81612801565b92915050565b60008135905061185f81612818565b92915050565b60008151905061187481612818565b92915050565b600082601f83011261188b57600080fd5b813561189b8482602086016117d3565b91505092915050565b6000813590506118b38161282f565b92915050565b6000602082840312156118cb57600080fd5b60006118d984828501611811565b91505092915050565b600080604083850312156118f557600080fd5b600061190385828601611811565b925050602061191485828601611811565b9150509250929050565b60008060006060848603121561193357600080fd5b600061194186828701611811565b935050602061195286828701611811565b9250506040611963868287016118a4565b9150509250925092565b6000806000806080858703121561198357600080fd5b600061199187828801611811565b94505060206119a287828801611811565b93505060406119b3878288016118a4565b925050606085013567ffffffffffffffff8111156119d057600080fd5b6119dc8782880161187a565b91505092959194509250565b600080604083850312156119fb57600080fd5b6000611a0985828601611811565b9250506020611a1a85828601611826565b9150509250929050565b60008060408385031215611a3757600080fd5b6000611a4585828601611811565b9250506020611a56858286016118a4565b9150509250929050565b600060208284031215611a7257600080fd5b6000611a8084828501611850565b91505092915050565b600060208284031215611a9b57600080fd5b6000611aa984828501611865565b91505092915050565b600060208284031215611ac457600080fd5b6000611ad2848285016118a4565b91505092915050565b60008060408385031215611aee57600080fd5b6000611afc858286016118a4565b9250506020611b0d8582860161183b565b9150509250929050565b60008060408385031215611b2a57600080fd5b6000611b38858286016118a4565b9250506020611b49858286016118a4565b9150509250929050565b611b5c8161259a565b82525050565b611b6b816125ac565b82525050565b611b7a816125b8565b82525050565b6000611b8b8261249c565b611b9581856124b2565b9350611ba5818560208601612627565b611bae816127c2565b840191505092915050565b6000611bc4826124a7565b611bce81856124c3565b9350611bde818560208601612627565b611be7816127c2565b840191505092915050565b6000611bfd826124a7565b611c0781856124d4565b9350611c17818560208601612627565b80840191505092915050565b6000611c306032836124c3565b91507f4552433732313a207472616e7366657220746f206e6f6e20455243373231526560008301527f63656976657220696d706c656d656e74657200000000000000000000000000006020830152604082019050919050565b6000611c96601c836124c3565b91507f4552433732313a20746f6b656e20616c7265616479206d696e746564000000006000830152602082019050919050565b6000611cd66024836124c3565b91507f4552433732313a207472616e7366657220746f20746865207a65726f2061646460008301527f72657373000000000000000000000000000000000000000000000000000000006020830152604082019050919050565b6000611d3c6019836124c3565b91507f4552433732313a20617070726f766520746f2063616c6c6572000000000000006000830152602082019050919050565b6000611d7c602c836124c3565b91507f4552433732313a206f70657261746f7220717565727920666f72206e6f6e657860008301527f697374656e7420746f6b656e00000000000000000000000000000000000000006020830152604082019050919050565b6000611de26038836124c3565b91507f4552433732313a20617070726f76652063616c6c6572206973206e6f74206f7760008301527f6e6572206e6f7220617070726f76656420666f7220616c6c00000000000000006020830152604082019050919050565b6000611e48602a836124c3565b91507f4552433732313a2062616c616e636520717565727920666f7220746865207a6560008301527f726f2061646472657373000000000000000000000000000000000000000000006020830152604082019050919050565b6000611eae6029836124c3565b91507f4552433732313a206f776e657220717565727920666f72206e6f6e657869737460008301527f656e7420746f6b656e00000000000000000000000000000000000000000000006020830152604082019050919050565b6000611f146020836124c3565b91507f4552433732313a206d696e7420746f20746865207a65726f20616464726573736000830152602082019050919050565b6000611f54602c836124c3565b91507f4552433732313a20617070726f76656420717565727920666f72206e6f6e657860008301527f697374656e7420746f6b656e00000000000000000000000000000000000000006020830152604082019050919050565b6000611fba6029836124c3565b91507f4552433732313a207472616e73666572206f6620746f6b656e2074686174206960008301527f73206e6f74206f776e00000000000000000000000000000000000000000000006020830152604082019050919050565b6000612020602f836124c3565b91507f4552433732314d657461646174613a2055524920717565727920666f72206e6f60008301527f6e6578697374656e7420746f6b656e00000000000000000000000000000000006020830152604082019050919050565b60006120866021836124c3565b91507f4552433732313a20617070726f76616c20746f2063757272656e74206f776e6560008301527f72000000000000000000000000000000000000000000000000000000000000006020830152604082019050919050565b60006120ec6031836124c3565b91507f4552433732313a207472616e736665722063616c6c6572206973206e6f74206f60008301527f776e6572206e6f7220617070726f7665640000000000000000000000000000006020830152604082019050919050565b61214e8161260e565b82525050565b60006121608285611bf2565b915061216c8284611bf2565b91508190509392505050565b600060208201905061218d6000830184611b53565b92915050565b60006080820190506121a86000830187611b53565b6121b56020830186611b53565b6121c26040830185612145565b81810360608301526121d48184611b80565b905095945050505050565b60006020820190506121f46000830184611b62565b92915050565b600060208201905061220f6000830184611b71565b92915050565b6000602082019050818103600083015261222f8184611bb9565b905092915050565b6000602082019050818103600083015261225081611c23565b9050919050565b6000602082019050818103600083015261227081611c89565b9050919050565b6000602082019050818103600083015261229081611cc9565b9050919050565b600060208201905081810360008301526122b081611d2f565b9050919050565b600060208201905081810360008301526122d081611d6f565b9050919050565b600060208201905081810360008301526122f081611dd5565b9050919050565b6000602082019050818103600083015261231081611e3b565b9050919050565b6000602082019050818103600083015261233081611ea1565b9050919050565b6000602082019050818103600083015261235081611f07565b9050919050565b6000602082019050818103600083015261237081611f47565b9050919050565b6000602082019050818103600083015261239081611fad565b9050919050565b600060208201905081810360008301526123b081612013565b9050919050565b600060208201905081810360008301526123d081612079565b9050919050565b600060208201905081810360008301526123f0816120df565b9050919050565b600060208201905061240c6000830184612145565b92915050565b60006040820190506124276000830185612145565b6124346020830184612145565b9392505050565b6000604051905081810181811067ffffffffffffffff8211171561246257612461612793565b5b8060405250919050565b600067ffffffffffffffff82111561248757612486612793565b5b601f19601f8301169050602081019050919050565b600081519050919050565b600081519050919050565b600082825260208201905092915050565b600082825260208201905092915050565b600081905092915050565b60006124ea8261260e565b91506124f58361260e565b9250827fffffffffffffffffffffffffffffffffffffffffffffffffffffffffffffffff0382111561252a57612529612706565b5b828201905092915050565b60006125408261260e565b915061254b8361260e565b92508261255b5761255a612735565b5b828204905092915050565b60006125718261260e565b915061257c8361260e565b92508282101561258f5761258e612706565b5b828203905092915050565b60006125a5826125ee565b9050919050565b60008115159050919050565b6000819050919050565b60007fffffffff0000000000000000000000000000000000000000000000000000000082169050919050565b600073ffffffffffffffffffffffffffffffffffffffff82169050919050565b6000819050919050565b82818337600083830152505050565b60005b8381101561264557808201518184015260208101905061262a565b83811115612654576000848401525b50505050565b6000600282049050600182168061267257607f821691505b6020821081141561268657612685612764565b5b50919050565b60006126978261260e565b91507fffffffffffffffffffffffffffffffffffffffffffffffffffffffffffffffff8214156126ca576126c9612706565b5b600182019050919050565b60006126e08261260e565b91506126eb8361260e565b9250826126fb576126fa612735565b5b828206905092915050565b7f4e487b7100000000000000000000000000000000000000000000000000000000600052601160045260246000fd5b7f4e487b7100000000000000000000000000000000000000000000000000000000600052601260045260246000fd5b7f4e487b7100000000000000000000000000000000000000000000000000000000600052602260045260246000fd5b7f4e487b7100000000000000000000000000000000000000000000000000000000600052604160045260246000fd5b6000601f19601f8301169050919050565b6127dc8161259a565b81146127e757600080fd5b50565b6127f3816125ac565b81146127fe57600080fd5b50565b61280a816125b8565b811461281557600080fd5b50565b612821816125c2565b811461282c57600080fd5b50565b6128388161260e565b811461284357600080fd5b5056fea2646970667358221220c8b13fbf685df64e014a01e12ea39f549bbf4afded26e6842f9a9bf0271500ef64736f6c63430008000033",
  "immutableReferences": {},
  "source": "pragma solidity >=0.4.22 <0.9.0;\n\nimport \"openzeppelin-solidity/contracts/token/ERC721/ERC721.sol\";\n\ncontract SolutionERC721 is ERC721{\n\n    event tokeninfo(uint uri, uint batchno);\n    event status(bytes32 info);\n    uint nonce;\n\n    constructor(string memory _name, string memory _symbol) \n        ERC721(_name, _symbol){}\n\n    //just mine new token\n    function mint(uint uri, uint batchno) public{\n        _mint(msg.sender,nonce);\n        emit tokeninfo(uri, batchno);\n    }\n\n    function del(uint tokenid, bytes32 info) public{\n        _burn(tokenid);\n        emit status(info);\n    }\n\n}",
  "sourcePath": "/home/andrsend/Desktop/AgroToken/contracts/SolutionERC721.sol",
  "compiler": {
    "name": "solc",
    "version": "0.8.0+commit.c7dfd78e.Emscripten.clang"
  },
  "schemaVersion": "3.4.4",
  "updatedAt": "2022-02-01T12:40:23.420Z",
  "networkType": "ethereum",
  "devdoc": {
    "kind": "dev",
    "methods": {
      "approve(address,uint256)": {
        "details": "See {IERC721-approve}."
      },
      "balanceOf(address)": {
        "details": "See {IERC721-balanceOf}."
      },
      "getApproved(uint256)": {
        "details": "See {IERC721-getApproved}."
      },
      "isApprovedForAll(address,address)": {
        "details": "See {IERC721-isApprovedForAll}."
      },
      "name()": {
        "details": "See {IERC721Metadata-name}."
      },
      "ownerOf(uint256)": {
        "details": "See {IERC721-ownerOf}."
      },
      "safeTransferFrom(address,address,uint256)": {
        "details": "See {IERC721-safeTransferFrom}."
      },
      "safeTransferFrom(address,address,uint256,bytes)": {
        "details": "See {IERC721-safeTransferFrom}."
      },
      "setApprovalForAll(address,bool)": {
        "details": "See {IERC721-setApprovalForAll}."
      },
      "supportsInterface(bytes4)": {
        "details": "See {IERC165-supportsInterface}."
      },
      "symbol()": {
        "details": "See {IERC721Metadata-symbol}."
      },
      "tokenURI(uint256)": {
        "details": "See {IERC721Metadata-tokenURI}."
      },
      "transferFrom(address,address,uint256)": {
        "details": "See {IERC721-transferFrom}."
      }
    },
    "version": 1
  },
  "userdoc": {
    "kind": "user",
    "methods": {},
    "version": 1
  }
}