{
  "contractName": "SolutionERC721",
  "abi": [
    {
      "inputs": [
        {
          "internalType": "string",
          "name": "_name",
          "type": "string"
        },
        {
          "internalType": "string",
          "name": "_symbol",
          "type": "string"
        }
      ],
      "stateMutability": "nonpayable",
      "type": "constructor"
    },
    {
      "anonymous": false,
      "inputs": [
        {
          "indexed": true,
          "internalType": "address",
          "name": "owner",
          "type": "address"
        },
        {
          "indexed": true,
          "internalType": "address",
          "name": "approved",
          "type": "address"
        },
        {
          "indexed": true,
          "internalType": "uint256",
          "name": "tokenId",
          "type": "uint256"
        }
      ],
      "name": "Approval",
      "type": "event"
    },
    {
      "anonymous": false,
      "inputs": [
        {
          "indexed": true,
          "internalType": "address",
          "name": "owner",
          "type": "address"
        },
        {
          "indexed": true,
          "internalType": "address",
          "name": "operator",
          "type": "address"
        },
        {
          "indexed": false,
          "internalType": "bool",
          "name": "approved",
          "type": "bool"
        }
      ],
      "name": "ApprovalForAll",
      "type": "event"
    },
    {
      "anonymous": false,
      "inputs": [
        {
          "indexed": true,
          "internalType": "address",
          "name": "from",
          "type": "address"
        },
        {
          "indexed": true,
          "internalType": "address",
          "name": "to",
          "type": "address"
        },
        {
          "indexed": true,
          "internalType": "uint256",
          "name": "tokenId",
          "type": "uint256"
        }
      ],
      "name": "Transfer",
      "type": "event"
    },
    {
      "anonymous": false,
      "inputs": [
        {
          "indexed": false,
          "internalType": "bytes32",
          "name": "info",
          "type": "bytes32"
        }
      ],
      "name": "status",
      "type": "event"
    },
    {
      "anonymous": false,
      "inputs": [
        {
          "indexed": true,
          "internalType": "uint256",
          "name": "id",
          "type": "uint256"
        },
        {
          "indexed": false,
          "internalType": "uint256",
          "name": "uri",
          "type": "uint256"
        },
        {
          "indexed": false,
          "internalType": "uint256",
          "name": "batchno",
          "type": "uint256"
        }
      ],
      "name": "tokeninfo",
      "type": "event"
    },
    {
      "inputs": [
        {
          "internalType": "address",
          "name": "to",
          "type": "address"
        },
        {
          "internalType": "uint256",
          "name": "tokenId",
          "type": "uint256"
        }
      ],
      "name": "approve",
      "outputs": [],
      "stateMutability": "nonpayable",
      "type": "function"
    },
    {
      "inputs": [
        {
          "internalType": "address",
          "name": "owner",
          "type": "address"
        }
      ],
      "name": "balanceOf",
      "outputs": [
        {
          "internalType": "uint256",
          "name": "",
          "type": "uint256"
        }
      ],
      "stateMutability": "view",
      "type": "function",
      "constant": true
    },
    {
      "inputs": [
        {
          "internalType": "uint256",
          "name": "tokenId",
          "type": "uint256"
        }
      ],
      "name": "getApproved",
      "outputs": [
        {
          "internalType": "address",
          "name": "",
          "type": "address"
        }
      ],
      "stateMutability": "view",
      "type": "function",
      "constant": true
    },
    {
      "inputs": [
        {
          "internalType": "address",
          "name": "owner",
          "type": "address"
        },
        {
          "internalType": "address",
          "name": "operator",
          "type": "address"
        }
      ],
      "name": "isApprovedForAll",
      "outputs": [
        {
          "internalType": "bool",
          "name": "",
          "type": "bool"
        }
      ],
      "stateMutability": "view",
      "type": "function",
      "constant": true
    },
    {
      "inputs": [],
      "name": "name",
      "outputs": [
        {
          "internalType": "string",
          "name": "",
          "type": "string"
        }
      ],
      "stateMutability": "view",
      "type": "function",
      "constant": true
    },
    {
      "inputs": [
        {
          "internalType": "uint256",
          "name": "tokenId",
          "type": "uint256"
        }
      ],
      "name": "ownerOf",
      "outputs": [
        {
          "internalType": "address",
          "name": "",
          "type": "address"
        }
      ],
      "stateMutability": "view",
      "type": "function",
      "constant": true
    },
    {
      "inputs": [
        {
          "internalType": "address",
          "name": "from",
          "type": "address"
        },
        {
          "internalType": "address",
          "name": "to",
          "type": "address"
        },
        {
          "internalType": "uint256",
          "name": "tokenId",
          "type": "uint256"
        }
      ],
      "name": "safeTransferFrom",
      "outputs": [],
      "stateMutability": "nonpayable",
      "type": "function"
    },
    {
      "inputs": [
        {
          "internalType": "address",
          "name": "from",
          "type": "address"
        },
        {
          "internalType": "address",
          "name": "to",
          "type": "address"
        },
        {
          "internalType": "uint256",
          "name": "tokenId",
          "type": "uint256"
        },
        {
          "internalType": "bytes",
          "name": "_data",
          "type": "bytes"
        }
      ],
      "name": "safeTransferFrom",
      "outputs": [],
      "stateMutability": "nonpayable",
      "type": "function"
    },
    {
      "inputs": [
        {
          "internalType": "address",
          "name": "operator",
          "type": "address"
        },
        {
          "internalType": "bool",
          "name": "approved",
          "type": "bool"
        }
      ],
      "name": "setApprovalForAll",
      "outputs": [],
      "stateMutability": "nonpayable",
      "type": "function"
    },
    {
      "inputs": [
        {
          "internalType": "bytes4",
          "name": "interfaceId",
          "type": "bytes4"
        }
      ],
      "name": "supportsInterface",
      "outputs": [
        {
          "internalType": "bool",
          "name": "",
          "type": "bool"
        }
      ],
      "stateMutability": "view",
      "type": "function",
      "constant": true
    },
    {
      "inputs": [],
      "name": "symbol",
      "outputs": [
        {
          "internalType": "string",
          "name": "",
          "type": "string"
        }
      ],
      "stateMutability": "view",
      "type": "function",
      "constant": true
    },
    {
      "inputs": [
        {
          "internalType": "uint256",
          "name": "tokenId",
          "type": "uint256"
        }
      ],
      "name": "tokenURI",
      "outputs": [
        {
          "internalType": "string",
          "name": "",
          "type": "string"
        }
      ],
      "stateMutability": "view",
      "type": "function",
      "constant": true
    },
    {
      "inputs": [
        {
          "internalType": "address",
          "name": "from",
          "type": "address"
        },
        {
          "internalType": "address",
          "name": "to",
          "type": "address"
        },
        {
          "internalType": "uint256",
          "name": "tokenId",
          "type": "uint256"
        }
      ],
      "name": "transferFrom",
      "outputs": [],
      "stateMutability": "nonpayable",
      "type": "function"
    },
    {
      "inputs": [
        {
          "internalType": "uint256",
          "name": "uri",
          "type": "uint256"
        },
        {
          "internalType": "uint256",
          "name": "batchno",
          "type": "uint256"
        }
      ],
      "name": "mint",
      "outputs": [],
      "stateMutability": "nonpayable",
      "type": "function"
    },
    {
      "inputs": [
        {
          "internalType": "uint256",
          "name": "tokenid",
          "type": "uint256"
        },
        {
          "internalType": "bytes32",
          "name": "info",
          "type": "bytes32"
        }
      ],
      "name": "del",
      "outputs": [],
      "stateMutability": "nonpayable",
      "type": "function"
    }
  ],
  "bytecode": "0x608060405260006006553480156200001657600080fd5b5060405162002be738038062002be783398181016040528101906200003c91906200019c565b81818160009080519060200190620000569291906200007a565b5080600190805190602001906200006f9291906200007a565b505050505062000340565b8280546200008890620002ac565b90600052602060002090601f016020900481019282620000ac5760008555620000f8565b82601f10620000c757805160ff1916838001178555620000f8565b82800160010185558215620000f8579182015b82811115620000f7578251825591602001919060010190620000da565b5b5090506200010791906200010b565b5090565b5b80821115620001265760008160009055506001016200010c565b5090565b6000620001416200013b8462000243565b6200020f565b9050828152602081018484840111156200015a57600080fd5b6200016784828562000276565b509392505050565b600082601f8301126200018157600080fd5b8151620001938482602086016200012a565b91505092915050565b60008060408385031215620001b057600080fd5b600083015167ffffffffffffffff811115620001cb57600080fd5b620001d9858286016200016f565b925050602083015167ffffffffffffffff811115620001f757600080fd5b62000205858286016200016f565b9150509250929050565b6000604051905081810181811067ffffffffffffffff8211171562000239576200023862000311565b5b8060405250919050565b600067ffffffffffffffff82111562000261576200026062000311565b5b601f19601f8301169050602081019050919050565b60005b838110156200029657808201518184015260208101905062000279565b83811115620002a6576000848401525b50505050565b60006002820490506001821680620002c557607f821691505b60208210811415620002dc57620002db620002e2565b5b50919050565b7f4e487b7100000000000000000000000000000000000000000000000000000000600052602260045260246000fd5b7f4e487b7100000000000000000000000000000000000000000000000000000000600052604160045260246000fd5b61289780620003506000396000f3fe608060405234801561001057600080fd5b50600436106100f55760003560e01c80636352211e11610097578063b88d4fde11610066578063b88d4fde14610282578063c87b56dd1461029e578063e1773fb9146102ce578063e985e9c5146102ea576100f5565b80636352211e146101e857806370a082311461021857806395d89b4114610248578063a22cb46514610266576100f5565b8063095ea7b3116100d3578063095ea7b3146101785780631b2ef1ca1461019457806323b872dd146101b057806342842e0e146101cc576100f5565b806301ffc9a7146100fa57806306fdde031461012a578063081812fc14610148575b600080fd5b610114600480360381019061010f9190611a7b565b61031a565b60405161012191906121fa565b60405180910390f35b6101326103fc565b60405161013f9190612230565b60405180910390f35b610162600480360381019061015d9190611acd565b61048e565b60405161016f9190612193565b60405180910390f35b610192600480360381019061018d9190611a3f565b610513565b005b6101ae60048036038101906101a99190611b32565b61062b565b005b6101ca60048036038101906101c59190611939565b61068f565b005b6101e660048036038101906101e19190611939565b6106ef565b005b61020260048036038101906101fd9190611acd565b61070f565b60405161020f9190612193565b60405180910390f35b610232600480360381019061022d91906118d4565b6107c1565b60405161023f9190612412565b60405180910390f35b610250610879565b60405161025d9190612230565b60405180910390f35b610280600480360381019061027b9190611a03565b61090b565b005b61029c60048036038101906102979190611988565b610921565b005b6102b860048036038101906102b39190611acd565b610983565b6040516102c59190612230565b60405180910390f35b6102e860048036038101906102e39190611af6565b610a2a565b005b61030460048036038101906102ff91906118fd565b610a6e565b60405161031191906121fa565b60405180910390f35b60007f80ac58cd000000000000000000000000000000000000000000000000000000007bffffffffffffffffffffffffffffffffffffffffffffffffffffffff1916827bffffffffffffffffffffffffffffffffffffffffffffffffffffffff191614806103e557507f5b5e139f000000000000000000000000000000000000000000000000000000007bffffffffffffffffffffffffffffffffffffffffffffffffffffffff1916827bffffffffffffffffffffffffffffffffffffffffffffffffffffffff1916145b806103f557506103f482610b02565b5b9050919050565b60606000805461040b90612675565b80601f016020809104026020016040519081016040528092919081815260200182805461043790612675565b80156104845780601f1061045957610100808354040283529160200191610484565b820191906000526020600020905b81548152906001019060200180831161046757829003601f168201915b5050505050905090565b600061049982610b6c565b6104d8576040517f08c379a00000000000000000000000000000000000000000000000000000000081526004016104cf90612372565b60405180910390fd5b6004600083815260200190815260200160002060009054906101000a900473ffffffffffffffffffffffffffffffffffffffff169050919050565b600061051e8261070f565b90508073ffffffffffffffffffffffffffffffffffffffff168373ffffffffffffffffffffffffffffffffffffffff16141561058f576040517f08c379a0000000000000000000000000000000000000000000000000000000008152600401610586906123d2565b60405180910390fd5b8073ffffffffffffffffffffffffffffffffffffffff166105ae610bd8565b73ffffffffffffffffffffffffffffffffffffffff1614806105dd57506105dc816105d7610bd8565b610a6e565b5b61061c576040517f08c379a0000000000000000000000000000000000000000000000000000000008152600401610613906122f2565b60405180910390fd5b6106268383610be0565b505050565b61063733600654610c99565b6006547f99dd9dd07eef40fbb23348a502c42d52ee2820cdfd03b2a0dd7c2cab73fee435838360405161066b92919061242d565b60405180910390a260066000815480929190610686906126a7565b91905055505050565b6106a061069a610bd8565b82610e67565b6106df576040517f08c379a00000000000000000000000000000000000000000000000000000000081526004016106d6906123f2565b60405180910390fd5b6106ea838383610f45565b505050565b61070a83838360405180602001604052806000815250610921565b505050565b6000806002600084815260200190815260200160002060009054906101000a900473ffffffffffffffffffffffffffffffffffffffff169050600073ffffffffffffffffffffffffffffffffffffffff168173ffffffffffffffffffffffffffffffffffffffff1614156107b8576040517f08c379a00000000000000000000000000000000000000000000000000000000081526004016107af90612332565b60405180910390fd5b80915050919050565b60008073ffffffffffffffffffffffffffffffffffffffff168273ffffffffffffffffffffffffffffffffffffffff161415610832576040517f08c379a000000000000000000000000000000000000000000000000000000000815260040161082990612312565b60405180910390fd5b600360008373ffffffffffffffffffffffffffffffffffffffff1673ffffffffffffffffffffffffffffffffffffffff168152602001908152602001600020549050919050565b60606001805461088890612675565b80601f01602080910402602001604051908101604052809291908181526020018280546108b490612675565b80156109015780601f106108d657610100808354040283529160200191610901565b820191906000526020600020905b8154815290600101906020018083116108e457829003601f168201915b5050505050905090565b61091d610916610bd8565b83836111a1565b5050565b61093261092c610bd8565b83610e67565b610971576040517f08c379a0000000000000000000000000000000000000000000000000000000008152600401610968906123f2565b60405180910390fd5b61097d8484848461130e565b50505050565b606061098e82610b6c565b6109cd576040517f08c379a00000000000000000000000000000000000000000000000000000000081526004016109c4906123b2565b60405180910390fd5b60006109d761136a565b905060008151116109f75760405180602001604052806000815250610a22565b80610a0184611381565b604051602001610a1292919061216f565b6040516020818303038152906040525b915050919050565b610a338261152e565b7f52ad0d5e1bb665314ebc5c0d9158c3d9ad6dd5dcee0d0b78743706457565159581604051610a629190612215565b60405180910390a15050565b6000600560008473ffffffffffffffffffffffffffffffffffffffff1673ffffffffffffffffffffffffffffffffffffffff16815260200190815260200160002060008373ffffffffffffffffffffffffffffffffffffffff1673ffffffffffffffffffffffffffffffffffffffff16815260200190815260200160002060009054906101000a900460ff16905092915050565b60007f01ffc9a7000000000000000000000000000000000000000000000000000000007bffffffffffffffffffffffffffffffffffffffffffffffffffffffff1916827bffffffffffffffffffffffffffffffffffffffffffffffffffffffff1916149050919050565b60008073ffffffffffffffffffffffffffffffffffffffff166002600084815260200190815260200160002060009054906101000a900473ffffffffffffffffffffffffffffffffffffffff1673ffffffffffffffffffffffffffffffffffffffff1614159050919050565b600033905090565b816004600083815260200190815260200160002060006101000a81548173ffffffffffffffffffffffffffffffffffffffff021916908373ffffffffffffffffffffffffffffffffffffffff160217905550808273ffffffffffffffffffffffffffffffffffffffff16610c538361070f565b73ffffffffffffffffffffffffffffffffffffffff167f8c5be1e5ebec7d5bd14f71427d1e84f3dd0314c0f7b2291e5b200ac8c7c3b92560405160405180910390a45050565b600073ffffffffffffffffffffffffffffffffffffffff168273ffffffffffffffffffffffffffffffffffffffff161415610d09576040517f08c379a0000000000000000000000000000000000000000000000000000000008152600401610d0090612352565b60405180910390fd5b610d1281610b6c565b15610d52576040517f08c379a0000000000000000000000000000000000000000000000000000000008152600401610d4990612272565b60405180910390fd5b610d5e6000838361163f565b6001600360008473ffffffffffffffffffffffffffffffffffffffff1673ffffffffffffffffffffffffffffffffffffffff1681526020019081526020016000206000828254610dae91906124fa565b92505081905550816002600083815260200190815260200160002060006101000a81548173ffffffffffffffffffffffffffffffffffffffff021916908373ffffffffffffffffffffffffffffffffffffffff160217905550808273ffffffffffffffffffffffffffffffffffffffff16600073ffffffffffffffffffffffffffffffffffffffff167fddf252ad1be2c89b69c2b068fc378daa952ba7f163c4a11628f55a4df523b3ef60405160405180910390a45050565b6000610e7282610b6c565b610eb1576040517f08c379a0000000000000000000000000000000000000000000000000000000008152600401610ea8906122d2565b60405180910390fd5b6000610ebc8361070f565b90508073ffffffffffffffffffffffffffffffffffffffff168473ffffffffffffffffffffffffffffffffffffffff161480610f2b57508373ffffffffffffffffffffffffffffffffffffffff16610f138461048e565b73ffffffffffffffffffffffffffffffffffffffff16145b80610f3c5750610f3b8185610a6e565b5b91505092915050565b8273ffffffffffffffffffffffffffffffffffffffff16610f658261070f565b73ffffffffffffffffffffffffffffffffffffffff1614610fbb576040517f08c379a0000000000000000000000000000000000000000000000000000000008152600401610fb290612392565b60405180910390fd5b600073ffffffffffffffffffffffffffffffffffffffff168273ffffffffffffffffffffffffffffffffffffffff16141561102b576040517f08c379a000000000000000000000000000000000000000000000000000000000815260040161102290612292565b60405180910390fd5b61103683838361163f565b611041600082610be0565b6001600360008573ffffffffffffffffffffffffffffffffffffffff1673ffffffffffffffffffffffffffffffffffffffff16815260200190815260200160002060008282546110919190612581565b925050819055506001600360008473ffffffffffffffffffffffffffffffffffffffff1673ffffffffffffffffffffffffffffffffffffffff16815260200190815260200160002060008282546110e891906124fa565b92505081905550816002600083815260200190815260200160002060006101000a81548173ffffffffffffffffffffffffffffffffffffffff021916908373ffffffffffffffffffffffffffffffffffffffff160217905550808273ffffffffffffffffffffffffffffffffffffffff168473ffffffffffffffffffffffffffffffffffffffff167fddf252ad1be2c89b69c2b068fc378daa952ba7f163c4a11628f55a4df523b3ef60405160405180910390a4505050565b8173ffffffffffffffffffffffffffffffffffffffff168373ffffffffffffffffffffffffffffffffffffffff161415611210576040517f08c379a0000000000000000000000000000000000000000000000000000000008152600401611207906122b2565b60405180910390fd5b80600560008573ffffffffffffffffffffffffffffffffffffffff1673ffffffffffffffffffffffffffffffffffffffff16815260200190815260200160002060008473ffffffffffffffffffffffffffffffffffffffff1673ffffffffffffffffffffffffffffffffffffffff16815260200190815260200160002060006101000a81548160ff0219169083151502179055508173ffffffffffffffffffffffffffffffffffffffff168373ffffffffffffffffffffffffffffffffffffffff167f17307eab39ab6107e8899845ad3d59bd9653f200f220920489ca2b5937696c318360405161130191906121fa565b60405180910390a3505050565b611319848484610f45565b61132584848484611644565b611364576040517f08c379a000000000000000000000000000000000000000000000000000000000815260040161135b90612252565b60405180910390fd5b50505050565b606060405180602001604052806000815250905090565b606060008214156113c9576040518060400160405280600181526020017f30000000000000000000000000000000000000000000000000000000000000008152509050611529565b600082905060005b600082146113fb5780806113e4906126a7565b915050600a826113f49190612550565b91506113d1565b60008167ffffffffffffffff81111561143d577f4e487b7100000000000000000000000000000000000000000000000000000000600052604160045260246000fd5b6040519080825280601f01601f19166020018201604052801561146f5781602001600182028036833780820191505090505b5090505b60008514611522576001826114889190612581565b9150600a8561149791906126f0565b60306114a391906124fa565b60f81b8183815181106114df577f4e487b7100000000000000000000000000000000000000000000000000000000600052603260045260246000fd5b60200101907effffffffffffffffffffffffffffffffffffffffffffffffffffffffffffff1916908160001a905350600a8561151b9190612550565b9450611473565b8093505050505b919050565b60006115398261070f565b90506115478160008461163f565b611552600083610be0565b6001600360008373ffffffffffffffffffffffffffffffffffffffff1673ffffffffffffffffffffffffffffffffffffffff16815260200190815260200160002060008282546115a29190612581565b925050819055506002600083815260200190815260200160002060006101000a81549073ffffffffffffffffffffffffffffffffffffffff021916905581600073ffffffffffffffffffffffffffffffffffffffff168273ffffffffffffffffffffffffffffffffffffffff167fddf252ad1be2c89b69c2b068fc378daa952ba7f163c4a11628f55a4df523b3ef60405160405180910390a45050565b505050565b60006116658473ffffffffffffffffffffffffffffffffffffffff166117db565b156117ce578373ffffffffffffffffffffffffffffffffffffffff1663150b7a0261168e610bd8565b8786866040518563ffffffff1660e01b81526004016116b094939291906121ae565b602060405180830381600087803b1580156116ca57600080fd5b505af19250505080156116fb57506040513d601f19601f820116820180604052508101906116f89190611aa4565b60015b61177e573d806000811461172b576040519150601f19603f3d011682016040523d82523d6000602084013e611730565b606091505b50600081511415611776576040517f08c379a000000000000000000000000000000000000000000000000000000000815260040161176d90612252565b60405180910390fd5b805181602001fd5b63150b7a0260e01b7bffffffffffffffffffffffffffffffffffffffffffffffffffffffff1916817bffffffffffffffffffffffffffffffffffffffffffffffffffffffff1916149150506117d3565b600190505b949350505050565b600080823b905060008111915050919050565b60006118016117fc84612487565b612456565b90508281526020810184848401111561181957600080fd5b611824848285612633565b509392505050565b60008135905061183b816127ee565b92915050565b60008135905061185081612805565b92915050565b6000813590506118658161281c565b92915050565b60008135905061187a81612833565b92915050565b60008151905061188f81612833565b92915050565b600082601f8301126118a657600080fd5b81356118b68482602086016117ee565b91505092915050565b6000813590506118ce8161284a565b92915050565b6000602082840312156118e657600080fd5b60006118f48482850161182c565b91505092915050565b6000806040838503121561191057600080fd5b600061191e8582860161182c565b925050602061192f8582860161182c565b9150509250929050565b60008060006060848603121561194e57600080fd5b600061195c8682870161182c565b935050602061196d8682870161182c565b925050604061197e868287016118bf565b9150509250925092565b6000806000806080858703121561199e57600080fd5b60006119ac8782880161182c565b94505060206119bd8782880161182c565b93505060406119ce878288016118bf565b925050606085013567ffffffffffffffff8111156119eb57600080fd5b6119f787828801611895565b91505092959194509250565b60008060408385031215611a1657600080fd5b6000611a248582860161182c565b9250506020611a3585828601611841565b9150509250929050565b60008060408385031215611a5257600080fd5b6000611a608582860161182c565b9250506020611a71858286016118bf565b9150509250929050565b600060208284031215611a8d57600080fd5b6000611a9b8482850161186b565b91505092915050565b600060208284031215611ab657600080fd5b6000611ac484828501611880565b91505092915050565b600060208284031215611adf57600080fd5b6000611aed848285016118bf565b91505092915050565b60008060408385031215611b0957600080fd5b6000611b17858286016118bf565b9250506020611b2885828601611856565b9150509250929050565b60008060408385031215611b4557600080fd5b6000611b53858286016118bf565b9250506020611b64858286016118bf565b9150509250929050565b611b77816125b5565b82525050565b611b86816125c7565b82525050565b611b95816125d3565b82525050565b6000611ba6826124b7565b611bb081856124cd565b9350611bc0818560208601612642565b611bc9816127dd565b840191505092915050565b6000611bdf826124c2565b611be981856124de565b9350611bf9818560208601612642565b611c02816127dd565b840191505092915050565b6000611c18826124c2565b611c2281856124ef565b9350611c32818560208601612642565b80840191505092915050565b6000611c4b6032836124de565b91507f4552433732313a207472616e7366657220746f206e6f6e20455243373231526560008301527f63656976657220696d706c656d656e74657200000000000000000000000000006020830152604082019050919050565b6000611cb1601c836124de565b91507f4552433732313a20746f6b656e20616c7265616479206d696e746564000000006000830152602082019050919050565b6000611cf16024836124de565b91507f4552433732313a207472616e7366657220746f20746865207a65726f2061646460008301527f72657373000000000000000000000000000000000000000000000000000000006020830152604082019050919050565b6000611d576019836124de565b91507f4552433732313a20617070726f766520746f2063616c6c6572000000000000006000830152602082019050919050565b6000611d97602c836124de565b91507f4552433732313a206f70657261746f7220717565727920666f72206e6f6e657860008301527f697374656e7420746f6b656e00000000000000000000000000000000000000006020830152604082019050919050565b6000611dfd6038836124de565b91507f4552433732313a20617070726f76652063616c6c6572206973206e6f74206f7760008301527f6e6572206e6f7220617070726f76656420666f7220616c6c00000000000000006020830152604082019050919050565b6000611e63602a836124de565b91507f4552433732313a2062616c616e636520717565727920666f7220746865207a6560008301527f726f2061646472657373000000000000000000000000000000000000000000006020830152604082019050919050565b6000611ec96029836124de565b91507f4552433732313a206f776e657220717565727920666f72206e6f6e657869737460008301527f656e7420746f6b656e00000000000000000000000000000000000000000000006020830152604082019050919050565b6000611f2f6020836124de565b91507f4552433732313a206d696e7420746f20746865207a65726f20616464726573736000830152602082019050919050565b6000611f6f602c836124de565b91507f4552433732313a20617070726f76656420717565727920666f72206e6f6e657860008301527f697374656e7420746f6b656e00000000000000000000000000000000000000006020830152604082019050919050565b6000611fd56029836124de565b91507f4552433732313a207472616e73666572206f6620746f6b656e2074686174206960008301527f73206e6f74206f776e00000000000000000000000000000000000000000000006020830152604082019050919050565b600061203b602f836124de565b91507f4552433732314d657461646174613a2055524920717565727920666f72206e6f60008301527f6e6578697374656e7420746f6b656e00000000000000000000000000000000006020830152604082019050919050565b60006120a16021836124de565b91507f4552433732313a20617070726f76616c20746f2063757272656e74206f776e6560008301527f72000000000000000000000000000000000000000000000000000000000000006020830152604082019050919050565b60006121076031836124de565b91507f4552433732313a207472616e736665722063616c6c6572206973206e6f74206f60008301527f776e6572206e6f7220617070726f7665640000000000000000000000000000006020830152604082019050919050565b61216981612629565b82525050565b600061217b8285611c0d565b91506121878284611c0d565b91508190509392505050565b60006020820190506121a86000830184611b6e565b92915050565b60006080820190506121c36000830187611b6e565b6121d06020830186611b6e565b6121dd6040830185612160565b81810360608301526121ef8184611b9b565b905095945050505050565b600060208201905061220f6000830184611b7d565b92915050565b600060208201905061222a6000830184611b8c565b92915050565b6000602082019050818103600083015261224a8184611bd4565b905092915050565b6000602082019050818103600083015261226b81611c3e565b9050919050565b6000602082019050818103600083015261228b81611ca4565b9050919050565b600060208201905081810360008301526122ab81611ce4565b9050919050565b600060208201905081810360008301526122cb81611d4a565b9050919050565b600060208201905081810360008301526122eb81611d8a565b9050919050565b6000602082019050818103600083015261230b81611df0565b9050919050565b6000602082019050818103600083015261232b81611e56565b9050919050565b6000602082019050818103600083015261234b81611ebc565b9050919050565b6000602082019050818103600083015261236b81611f22565b9050919050565b6000602082019050818103600083015261238b81611f62565b9050919050565b600060208201905081810360008301526123ab81611fc8565b9050919050565b600060208201905081810360008301526123cb8161202e565b9050919050565b600060208201905081810360008301526123eb81612094565b9050919050565b6000602082019050818103600083015261240b816120fa565b9050919050565b60006020820190506124276000830184612160565b92915050565b60006040820190506124426000830185612160565b61244f6020830184612160565b9392505050565b6000604051905081810181811067ffffffffffffffff8211171561247d5761247c6127ae565b5b8060405250919050565b600067ffffffffffffffff8211156124a2576124a16127ae565b5b601f19601f8301169050602081019050919050565b600081519050919050565b600081519050919050565b600082825260208201905092915050565b600082825260208201905092915050565b600081905092915050565b600061250582612629565b915061251083612629565b9250827fffffffffffffffffffffffffffffffffffffffffffffffffffffffffffffffff0382111561254557612544612721565b5b828201905092915050565b600061255b82612629565b915061256683612629565b92508261257657612575612750565b5b828204905092915050565b600061258c82612629565b915061259783612629565b9250828210156125aa576125a9612721565b5b828203905092915050565b60006125c082612609565b9050919050565b60008115159050919050565b6000819050919050565b60007fffffffff0000000000000000000000000000000000000000000000000000000082169050919050565b600073ffffffffffffffffffffffffffffffffffffffff82169050919050565b6000819050919050565b82818337600083830152505050565b60005b83811015612660578082015181840152602081019050612645565b8381111561266f576000848401525b50505050565b6000600282049050600182168061268d57607f821691505b602082108114156126a1576126a061277f565b5b50919050565b60006126b282612629565b91507fffffffffffffffffffffffffffffffffffffffffffffffffffffffffffffffff8214156126e5576126e4612721565b5b600182019050919050565b60006126fb82612629565b915061270683612629565b92508261271657612715612750565b5b828206905092915050565b7f4e487b7100000000000000000000000000000000000000000000000000000000600052601160045260246000fd5b7f4e487b7100000000000000000000000000000000000000000000000000000000600052601260045260246000fd5b7f4e487b7100000000000000000000000000000000000000000000000000000000600052602260045260246000fd5b7f4e487b7100000000000000000000000000000000000000000000000000000000600052604160045260246000fd5b6000601f19601f8301169050919050565b6127f7816125b5565b811461280257600080fd5b50565b61280e816125c7565b811461281957600080fd5b50565b612825816125d3565b811461283057600080fd5b50565b61283c816125dd565b811461284757600080fd5b50565b61285381612629565b811461285e57600080fd5b5056fea2646970667358221220bc104b163f5de0b50053cd1c3f1366e60ce101cd9f973e06fdc134f1dd0fc1fa64736f6c63430008000033",
  "immutableReferences": {},
  "source": "pragma solidity >=0.4.22 <0.9.0;\n\nimport \"openzeppelin-solidity/contracts/token/ERC721/ERC721.sol\";\n\ncontract SolutionERC721 is ERC721{\n\n    event tokeninfo(uint indexed id, uint uri, uint batchno);\n    event status(bytes32 info);\n    uint nonce=0;\n\n    constructor(string memory _name, string memory _symbol) \n        ERC721(_name, _symbol){}\n\n    //just mine new token\n    function mint(uint uri, uint batchno) public{\n        _mint(msg.sender,nonce);\n        emit tokeninfo(nonce, uri, batchno);\n        nonce++;\n    }\n\n    function del(uint tokenid, bytes32 info) public{\n        _burn(tokenid);\n        emit status(info);\n    }\n\n}",
  "sourcePath": "/home/andrsend/Desktop/AgroToken/contracts/SolutionERC721.sol",
  "compiler": {
    "name": "solc",
    "version": "0.8.0+commit.c7dfd78e.Emscripten.clang"
  },
  "schemaVersion": "3.4.4",
  "updatedAt": "2022-04-05T12:09:35.676Z",
  "networkType": "ethereum",
  "devdoc": {
    "kind": "dev",
    "methods": {
      "approve(address,uint256)": {
        "details": "See {IERC721-approve}."
      },
      "balanceOf(address)": {
        "details": "See {IERC721-balanceOf}."
      },
      "getApproved(uint256)": {
        "details": "See {IERC721-getApproved}."
      },
      "isApprovedForAll(address,address)": {
        "details": "See {IERC721-isApprovedForAll}."
      },
      "name()": {
        "details": "See {IERC721Metadata-name}."
      },
      "ownerOf(uint256)": {
        "details": "See {IERC721-ownerOf}."
      },
      "safeTransferFrom(address,address,uint256)": {
        "details": "See {IERC721-safeTransferFrom}."
      },
      "safeTransferFrom(address,address,uint256,bytes)": {
        "details": "See {IERC721-safeTransferFrom}."
      },
      "setApprovalForAll(address,bool)": {
        "details": "See {IERC721-setApprovalForAll}."
      },
      "supportsInterface(bytes4)": {
        "details": "See {IERC165-supportsInterface}."
      },
      "symbol()": {
        "details": "See {IERC721Metadata-symbol}."
      },
      "tokenURI(uint256)": {
        "details": "See {IERC721Metadata-tokenURI}."
      },
      "transferFrom(address,address,uint256)": {
        "details": "See {IERC721-transferFrom}."
      }
    },
    "version": 1
  },
  "userdoc": {
    "kind": "user",
    "methods": {},
    "version": 1
  }
}