{
  "contractName": "SolutionERC1155",
  "abi": [
    {
      "inputs": [],
      "stateMutability": "nonpayable",
      "type": "constructor"
    },
    {
      "anonymous": false,
      "inputs": [
        {
          "indexed": true,
          "internalType": "address",
          "name": "account",
          "type": "address"
        },
        {
          "indexed": true,
          "internalType": "address",
          "name": "operator",
          "type": "address"
        },
        {
          "indexed": false,
          "internalType": "bool",
          "name": "approved",
          "type": "bool"
        }
      ],
      "name": "ApprovalForAll",
      "type": "event"
    },
    {
      "anonymous": false,
      "inputs": [
        {
          "indexed": true,
          "internalType": "address",
          "name": "operator",
          "type": "address"
        },
        {
          "indexed": true,
          "internalType": "address",
          "name": "from",
          "type": "address"
        },
        {
          "indexed": true,
          "internalType": "address",
          "name": "to",
          "type": "address"
        },
        {
          "indexed": false,
          "internalType": "uint256[]",
          "name": "ids",
          "type": "uint256[]"
        },
        {
          "indexed": false,
          "internalType": "uint256[]",
          "name": "values",
          "type": "uint256[]"
        }
      ],
      "name": "TransferBatch",
      "type": "event"
    },
    {
      "anonymous": false,
      "inputs": [
        {
          "indexed": true,
          "internalType": "address",
          "name": "operator",
          "type": "address"
        },
        {
          "indexed": true,
          "internalType": "address",
          "name": "from",
          "type": "address"
        },
        {
          "indexed": true,
          "internalType": "address",
          "name": "to",
          "type": "address"
        },
        {
          "indexed": false,
          "internalType": "uint256",
          "name": "id",
          "type": "uint256"
        },
        {
          "indexed": false,
          "internalType": "uint256",
          "name": "value",
          "type": "uint256"
        }
      ],
      "name": "TransferSingle",
      "type": "event"
    },
    {
      "anonymous": false,
      "inputs": [
        {
          "indexed": false,
          "internalType": "string",
          "name": "value",
          "type": "string"
        },
        {
          "indexed": true,
          "internalType": "uint256",
          "name": "id",
          "type": "uint256"
        }
      ],
      "name": "URI",
      "type": "event"
    },
    {
      "inputs": [
        {
          "internalType": "address",
          "name": "account",
          "type": "address"
        },
        {
          "internalType": "uint256",
          "name": "id",
          "type": "uint256"
        }
      ],
      "name": "balanceOf",
      "outputs": [
        {
          "internalType": "uint256",
          "name": "",
          "type": "uint256"
        }
      ],
      "stateMutability": "view",
      "type": "function",
      "constant": true
    },
    {
      "inputs": [
        {
          "internalType": "address[]",
          "name": "accounts",
          "type": "address[]"
        },
        {
          "internalType": "uint256[]",
          "name": "ids",
          "type": "uint256[]"
        }
      ],
      "name": "balanceOfBatch",
      "outputs": [
        {
          "internalType": "uint256[]",
          "name": "",
          "type": "uint256[]"
        }
      ],
      "stateMutability": "view",
      "type": "function",
      "constant": true
    },
    {
      "inputs": [
        {
          "internalType": "address",
          "name": "account",
          "type": "address"
        },
        {
          "internalType": "address",
          "name": "operator",
          "type": "address"
        }
      ],
      "name": "isApprovedForAll",
      "outputs": [
        {
          "internalType": "bool",
          "name": "",
          "type": "bool"
        }
      ],
      "stateMutability": "view",
      "type": "function",
      "constant": true
    },
    {
      "inputs": [],
      "name": "korinthiaki",
      "outputs": [
        {
          "internalType": "uint256",
          "name": "",
          "type": "uint256"
        }
      ],
      "stateMutability": "view",
      "type": "function",
      "constant": true
    },
    {
      "inputs": [
        {
          "internalType": "address",
          "name": "from",
          "type": "address"
        },
        {
          "internalType": "address",
          "name": "to",
          "type": "address"
        },
        {
          "internalType": "uint256[]",
          "name": "ids",
          "type": "uint256[]"
        },
        {
          "internalType": "uint256[]",
          "name": "amounts",
          "type": "uint256[]"
        },
        {
          "internalType": "bytes",
          "name": "data",
          "type": "bytes"
        }
      ],
      "name": "safeBatchTransferFrom",
      "outputs": [],
      "stateMutability": "nonpayable",
      "type": "function"
    },
    {
      "inputs": [
        {
          "internalType": "address",
          "name": "from",
          "type": "address"
        },
        {
          "internalType": "address",
          "name": "to",
          "type": "address"
        },
        {
          "internalType": "uint256",
          "name": "id",
          "type": "uint256"
        },
        {
          "internalType": "uint256",
          "name": "amount",
          "type": "uint256"
        },
        {
          "internalType": "bytes",
          "name": "data",
          "type": "bytes"
        }
      ],
      "name": "safeTransferFrom",
      "outputs": [],
      "stateMutability": "nonpayable",
      "type": "function"
    },
    {
      "inputs": [
        {
          "internalType": "address",
          "name": "operator",
          "type": "address"
        },
        {
          "internalType": "bool",
          "name": "approved",
          "type": "bool"
        }
      ],
      "name": "setApprovalForAll",
      "outputs": [],
      "stateMutability": "nonpayable",
      "type": "function"
    },
    {
      "inputs": [],
      "name": "soultanina",
      "outputs": [
        {
          "internalType": "uint256",
          "name": "",
          "type": "uint256"
        }
      ],
      "stateMutability": "view",
      "type": "function",
      "constant": true
    },
    {
      "inputs": [
        {
          "internalType": "bytes4",
          "name": "interfaceId",
          "type": "bytes4"
        }
      ],
      "name": "supportsInterface",
      "outputs": [
        {
          "internalType": "bool",
          "name": "",
          "type": "bool"
        }
      ],
      "stateMutability": "view",
      "type": "function",
      "constant": true
    },
    {
      "inputs": [
        {
          "internalType": "uint256",
          "name": "",
          "type": "uint256"
        }
      ],
      "name": "uri",
      "outputs": [
        {
          "internalType": "string",
          "name": "",
          "type": "string"
        }
      ],
      "stateMutability": "view",
      "type": "function",
      "constant": true
    },
    {
      "inputs": [
        {
          "internalType": "uint256",
          "name": "amount",
          "type": "uint256"
        },
        {
          "internalType": "uint256",
          "name": "token_id",
          "type": "uint256"
        }
      ],
      "name": "mint",
      "outputs": [],
      "stateMutability": "nonpayable",
      "type": "function"
    }
  ],
  "bytecode": "0x60806040523480156200001157600080fd5b506040518060400160405280600c81526020017f6578616d706c652e6a736f6e000000000000000000000000000000000000000081525062000059816200006060201b60201c565b5062000191565b8060029080519060200190620000789291906200007c565b5050565b8280546200008a906200012c565b90600052602060002090601f016020900481019282620000ae5760008555620000fa565b82601f10620000c957805160ff1916838001178555620000fa565b82800160010185558215620000fa579182015b82811115620000f9578251825591602001919060010190620000dc565b5b5090506200010991906200010d565b5090565b5b80821115620001285760008160009055506001016200010e565b5090565b600060028204905060018216806200014557607f821691505b602082108114156200015c576200015b62000162565b5b50919050565b7f4e487b7100000000000000000000000000000000000000000000000000000000600052602260045260246000fd5b61286e80620001a16000396000f3fe608060405234801561001057600080fd5b50600436106100a85760003560e01c80634e1273f4116100715780634e1273f414610175578063573772b7146101a5578063a22cb465146101c3578063e985e9c5146101df578063f242432a1461020f578063fff334ef1461022b576100a8565b8062fdd58e146100ad57806301ffc9a7146100dd5780630e89341c1461010d5780631b2ef1ca1461013d5780632eb2c2d614610159575b600080fd5b6100c760048036038101906100c291906119e9565b610249565b6040516100d49190612386565b60405180910390f35b6100f760048036038101906100f29190611a91565b610312565b60405161010491906121e9565b60405180910390f35b61012760048036038101906101229190611ae3565b6103f4565b6040516101349190612204565b60405180910390f35b61015760048036038101906101529190611b0c565b610488565b005b610173600480360381019061016e919061185f565b6104a7565b005b61018f600480360381019061018a9190611a25565b610548565b60405161019c9190612190565b60405180910390f35b6101ad6106f9565b6040516101ba9190612386565b60405180910390f35b6101dd60048036038101906101d891906119ad565b6106fe565b005b6101f960048036038101906101f49190611823565b610714565b60405161020691906121e9565b60405180910390f35b6102296004803603810190610224919061191e565b6107a8565b005b610233610849565b6040516102409190612386565b60405180910390f35b60008073ffffffffffffffffffffffffffffffffffffffff168373ffffffffffffffffffffffffffffffffffffffff1614156102ba576040517f08c379a00000000000000000000000000000000000000000000000000000000081526004016102b190612266565b60405180910390fd5b60008083815260200190815260200160002060008473ffffffffffffffffffffffffffffffffffffffff1673ffffffffffffffffffffffffffffffffffffffff16815260200190815260200160002054905092915050565b60007fd9b67a26000000000000000000000000000000000000000000000000000000007bffffffffffffffffffffffffffffffffffffffffffffffffffffffff1916827bffffffffffffffffffffffffffffffffffffffffffffffffffffffff191614806103dd57507f0e89341c000000000000000000000000000000000000000000000000000000007bffffffffffffffffffffffffffffffffffffffffffffffffffffffff1916827bffffffffffffffffffffffffffffffffffffffffffffffffffffffff1916145b806103ed57506103ec8261084e565b5b9050919050565b60606002805461040390612600565b80601f016020809104026020016040519081016040528092919081815260200182805461042f90612600565b801561047c5780601f106104515761010080835404028352916020019161047c565b820191906000526020600020905b81548152906001019060200180831161045f57829003601f168201915b50505050509050919050565b6104a3338284604051806020016040528060008152506108b8565b5050565b6104af610a4e565b73ffffffffffffffffffffffffffffffffffffffff168573ffffffffffffffffffffffffffffffffffffffff1614806104f557506104f4856104ef610a4e565b610714565b5b610534576040517f08c379a000000000000000000000000000000000000000000000000000000000815260040161052b906122c6565b60405180910390fd5b6105418585858585610a56565b5050505050565b6060815183511461058e576040517f08c379a000000000000000000000000000000000000000000000000000000000815260040161058590612326565b60405180910390fd5b6000835167ffffffffffffffff8111156105d1577f4e487b7100000000000000000000000000000000000000000000000000000000600052604160045260246000fd5b6040519080825280602002602001820160405280156105ff5781602001602082028036833780820191505090505b50905060005b84518110156106ee5761069885828151811061064a577f4e487b7100000000000000000000000000000000000000000000000000000000600052603260045260246000fd5b602002602001015185838151811061068b577f4e487b7100000000000000000000000000000000000000000000000000000000600052603260045260246000fd5b6020026020010151610249565b8282815181106106d1577f4e487b7100000000000000000000000000000000000000000000000000000000600052603260045260246000fd5b602002602001018181525050806106e790612632565b9050610605565b508091505092915050565b600081565b610710610709610a4e565b8383610db6565b5050565b6000600160008473ffffffffffffffffffffffffffffffffffffffff1673ffffffffffffffffffffffffffffffffffffffff16815260200190815260200160002060008373ffffffffffffffffffffffffffffffffffffffff1673ffffffffffffffffffffffffffffffffffffffff16815260200190815260200160002060009054906101000a900460ff16905092915050565b6107b0610a4e565b73ffffffffffffffffffffffffffffffffffffffff168573ffffffffffffffffffffffffffffffffffffffff1614806107f657506107f5856107f0610a4e565b610714565b5b610835576040517f08c379a000000000000000000000000000000000000000000000000000000000815260040161082c90612286565b60405180910390fd5b6108428585858585610f23565b5050505050565b600181565b60007f01ffc9a7000000000000000000000000000000000000000000000000000000007bffffffffffffffffffffffffffffffffffffffffffffffffffffffff1916827bffffffffffffffffffffffffffffffffffffffffffffffffffffffff1916149050919050565b600073ffffffffffffffffffffffffffffffffffffffff168473ffffffffffffffffffffffffffffffffffffffff161415610928576040517f08c379a000000000000000000000000000000000000000000000000000000000815260040161091f90612366565b60405180910390fd5b6000610932610a4e565b905061095381600087610944886111a5565b61094d886111a5565b8761126b565b8260008086815260200190815260200160002060008773ffffffffffffffffffffffffffffffffffffffff1673ffffffffffffffffffffffffffffffffffffffff16815260200190815260200160002060008282546109b291906124f4565b925050819055508473ffffffffffffffffffffffffffffffffffffffff16600073ffffffffffffffffffffffffffffffffffffffff168273ffffffffffffffffffffffffffffffffffffffff167fc3d58168c5ae7397731d063d5bbf3d657854427343f4c083240f7aacaa2d0f628787604051610a309291906123a1565b60405180910390a4610a4781600087878787611273565b5050505050565b600033905090565b8151835114610a9a576040517f08c379a0000000000000000000000000000000000000000000000000000000008152600401610a9190612346565b60405180910390fd5b600073ffffffffffffffffffffffffffffffffffffffff168473ffffffffffffffffffffffffffffffffffffffff161415610b0a576040517f08c379a0000000000000000000000000000000000000000000000000000000008152600401610b01906122a6565b60405180910390fd5b6000610b14610a4e565b9050610b2481878787878761126b565b60005b8451811015610d21576000858281518110610b6b577f4e487b7100000000000000000000000000000000000000000000000000000000600052603260045260246000fd5b602002602001015190506000858381518110610bb0577f4e487b7100000000000000000000000000000000000000000000000000000000600052603260045260246000fd5b60200260200101519050600080600084815260200190815260200160002060008b73ffffffffffffffffffffffffffffffffffffffff1673ffffffffffffffffffffffffffffffffffffffff16815260200190815260200160002054905081811015610c51576040517f08c379a0000000000000000000000000000000000000000000000000000000008152600401610c48906122e6565b60405180910390fd5b81810360008085815260200190815260200160002060008c73ffffffffffffffffffffffffffffffffffffffff1673ffffffffffffffffffffffffffffffffffffffff168152602001908152602001600020819055508160008085815260200190815260200160002060008b73ffffffffffffffffffffffffffffffffffffffff1673ffffffffffffffffffffffffffffffffffffffff1681526020019081526020016000206000828254610d0691906124f4565b9250508190555050505080610d1a90612632565b9050610b27565b508473ffffffffffffffffffffffffffffffffffffffff168673ffffffffffffffffffffffffffffffffffffffff168273ffffffffffffffffffffffffffffffffffffffff167f4a39dc06d4c0dbc64b70af90fd698a233a518aa5d07e595d983b8c0526c8f7fb8787604051610d989291906121b2565b60405180910390a4610dae818787878787611443565b505050505050565b8173ffffffffffffffffffffffffffffffffffffffff168373ffffffffffffffffffffffffffffffffffffffff161415610e25576040517f08c379a0000000000000000000000000000000000000000000000000000000008152600401610e1c90612306565b60405180910390fd5b80600160008573ffffffffffffffffffffffffffffffffffffffff1673ffffffffffffffffffffffffffffffffffffffff16815260200190815260200160002060008473ffffffffffffffffffffffffffffffffffffffff1673ffffffffffffffffffffffffffffffffffffffff16815260200190815260200160002060006101000a81548160ff0219169083151502179055508173ffffffffffffffffffffffffffffffffffffffff168373ffffffffffffffffffffffffffffffffffffffff167f17307eab39ab6107e8899845ad3d59bd9653f200f220920489ca2b5937696c3183604051610f1691906121e9565b60405180910390a3505050565b600073ffffffffffffffffffffffffffffffffffffffff168473ffffffffffffffffffffffffffffffffffffffff161415610f93576040517f08c379a0000000000000000000000000000000000000000000000000000000008152600401610f8a906122a6565b60405180910390fd5b6000610f9d610a4e565b9050610fbd818787610fae886111a5565b610fb7886111a5565b8761126b565b600080600086815260200190815260200160002060008873ffffffffffffffffffffffffffffffffffffffff1673ffffffffffffffffffffffffffffffffffffffff16815260200190815260200160002054905083811015611054576040517f08c379a000000000000000000000000000000000000000000000000000000000815260040161104b906122e6565b60405180910390fd5b83810360008087815260200190815260200160002060008973ffffffffffffffffffffffffffffffffffffffff1673ffffffffffffffffffffffffffffffffffffffff168152602001908152602001600020819055508360008087815260200190815260200160002060008873ffffffffffffffffffffffffffffffffffffffff1673ffffffffffffffffffffffffffffffffffffffff168152602001908152602001600020600082825461110991906124f4565b925050819055508573ffffffffffffffffffffffffffffffffffffffff168773ffffffffffffffffffffffffffffffffffffffff168373ffffffffffffffffffffffffffffffffffffffff167fc3d58168c5ae7397731d063d5bbf3d657854427343f4c083240f7aacaa2d0f6288886040516111869291906123a1565b60405180910390a461119c828888888888611273565b50505050505050565b60606000600167ffffffffffffffff8111156111ea577f4e487b7100000000000000000000000000000000000000000000000000000000600052604160045260246000fd5b6040519080825280602002602001820160405280156112185781602001602082028036833780820191505090505b5090508281600081518110611256577f4e487b7100000000000000000000000000000000000000000000000000000000600052603260045260246000fd5b60200260200101818152505080915050919050565b505050505050565b6112928473ffffffffffffffffffffffffffffffffffffffff16611613565b1561143b578373ffffffffffffffffffffffffffffffffffffffff1663f23a6e6187878686866040518663ffffffff1660e01b81526004016112d8959493929190612136565b602060405180830381600087803b1580156112f257600080fd5b505af192505050801561132357506040513d601f19601f820116820180604052508101906113209190611aba565b60015b6113b25761132f612726565b8061133a5750611377565b806040517f08c379a000000000000000000000000000000000000000000000000000000000815260040161136e9190612204565b60405180910390fd5b6040517f08c379a00000000000000000000000000000000000000000000000000000000081526004016113a990612226565b60405180910390fd5b63f23a6e6160e01b7bffffffffffffffffffffffffffffffffffffffffffffffffffffffff1916817bffffffffffffffffffffffffffffffffffffffffffffffffffffffff191614611439576040517f08c379a000000000000000000000000000000000000000000000000000000000815260040161143090612246565b60405180910390fd5b505b505050505050565b6114628473ffffffffffffffffffffffffffffffffffffffff16611613565b1561160b578373ffffffffffffffffffffffffffffffffffffffff1663bc197c8187878686866040518663ffffffff1660e01b81526004016114a89594939291906120ce565b602060405180830381600087803b1580156114c257600080fd5b505af19250505080156114f357506040513d601f19601f820116820180604052508101906114f09190611aba565b60015b611582576114ff612726565b8061150a5750611547565b806040517f08c379a000000000000000000000000000000000000000000000000000000000815260040161153e9190612204565b60405180910390fd5b6040517f08c379a000000000000000000000000000000000000000000000000000000000815260040161157990612226565b60405180910390fd5b63bc197c8160e01b7bffffffffffffffffffffffffffffffffffffffffffffffffffffffff1916817bffffffffffffffffffffffffffffffffffffffffffffffffffffffff191614611609576040517f08c379a000000000000000000000000000000000000000000000000000000000815260040161160090612246565b60405180910390fd5b505b505050505050565b600080823b905060008111915050919050565b6000611639611634846123fb565b6123ca565b9050808382526020820190508285602086028201111561165857600080fd5b60005b85811015611688578161166e888261173c565b84526020840193506020830192505060018101905061165b565b5050509392505050565b60006116a56116a084612427565b6123ca565b905080838252602082019050828560208602820111156116c457600080fd5b60005b858110156116f457816116da888261180e565b8452602084019350602083019250506001810190506116c7565b5050509392505050565b600061171161170c84612453565b6123ca565b90508281526020810184848401111561172957600080fd5b6117348482856125be565b509392505050565b60008135905061174b816127dc565b92915050565b600082601f83011261176257600080fd5b8135611772848260208601611626565b91505092915050565b600082601f83011261178c57600080fd5b813561179c848260208601611692565b91505092915050565b6000813590506117b4816127f3565b92915050565b6000813590506117c98161280a565b92915050565b6000815190506117de8161280a565b92915050565b600082601f8301126117f557600080fd5b81356118058482602086016116fe565b91505092915050565b60008135905061181d81612821565b92915050565b6000806040838503121561183657600080fd5b60006118448582860161173c565b92505060206118558582860161173c565b9150509250929050565b600080600080600060a0868803121561187757600080fd5b60006118858882890161173c565b95505060206118968882890161173c565b945050604086013567ffffffffffffffff8111156118b357600080fd5b6118bf8882890161177b565b935050606086013567ffffffffffffffff8111156118dc57600080fd5b6118e88882890161177b565b925050608086013567ffffffffffffffff81111561190557600080fd5b611911888289016117e4565b9150509295509295909350565b600080600080600060a0868803121561193657600080fd5b60006119448882890161173c565b95505060206119558882890161173c565b94505060406119668882890161180e565b93505060606119778882890161180e565b925050608086013567ffffffffffffffff81111561199457600080fd5b6119a0888289016117e4565b9150509295509295909350565b600080604083850312156119c057600080fd5b60006119ce8582860161173c565b92505060206119df858286016117a5565b9150509250929050565b600080604083850312156119fc57600080fd5b6000611a0a8582860161173c565b9250506020611a1b8582860161180e565b9150509250929050565b60008060408385031215611a3857600080fd5b600083013567ffffffffffffffff811115611a5257600080fd5b611a5e85828601611751565b925050602083013567ffffffffffffffff811115611a7b57600080fd5b611a878582860161177b565b9150509250929050565b600060208284031215611aa357600080fd5b6000611ab1848285016117ba565b91505092915050565b600060208284031215611acc57600080fd5b6000611ada848285016117cf565b91505092915050565b600060208284031215611af557600080fd5b6000611b038482850161180e565b91505092915050565b60008060408385031215611b1f57600080fd5b6000611b2d8582860161180e565b9250506020611b3e8582860161180e565b9150509250929050565b6000611b5483836120b0565b60208301905092915050565b611b698161254a565b82525050565b6000611b7a82612493565b611b8481856124c1565b9350611b8f83612483565b8060005b83811015611bc0578151611ba78882611b48565b9750611bb2836124b4565b925050600181019050611b93565b5085935050505092915050565b611bd68161255c565b82525050565b6000611be78261249e565b611bf181856124d2565b9350611c018185602086016125cd565b611c0a81612708565b840191505092915050565b6000611c20826124a9565b611c2a81856124e3565b9350611c3a8185602086016125cd565b611c4381612708565b840191505092915050565b6000611c5b6034836124e3565b91507f455243313135353a207472616e7366657220746f206e6f6e204552433131353560008301527f526563656976657220696d706c656d656e7465720000000000000000000000006020830152604082019050919050565b6000611cc16028836124e3565b91507f455243313135353a204552433131353552656365697665722072656a6563746560008301527f6420746f6b656e730000000000000000000000000000000000000000000000006020830152604082019050919050565b6000611d27602b836124e3565b91507f455243313135353a2062616c616e636520717565727920666f7220746865207a60008301527f65726f20616464726573730000000000000000000000000000000000000000006020830152604082019050919050565b6000611d8d6029836124e3565b91507f455243313135353a2063616c6c6572206973206e6f74206f776e6572206e6f7260008301527f20617070726f76656400000000000000000000000000000000000000000000006020830152604082019050919050565b6000611df36025836124e3565b91507f455243313135353a207472616e7366657220746f20746865207a65726f20616460008301527f64726573730000000000000000000000000000000000000000000000000000006020830152604082019050919050565b6000611e596032836124e3565b91507f455243313135353a207472616e736665722063616c6c6572206973206e6f742060008301527f6f776e6572206e6f7220617070726f76656400000000000000000000000000006020830152604082019050919050565b6000611ebf602a836124e3565b91507f455243313135353a20696e73756666696369656e742062616c616e636520666f60008301527f72207472616e73666572000000000000000000000000000000000000000000006020830152604082019050919050565b6000611f256029836124e3565b91507f455243313135353a2073657474696e6720617070726f76616c2073746174757360008301527f20666f722073656c6600000000000000000000000000000000000000000000006020830152604082019050919050565b6000611f8b6029836124e3565b91507f455243313135353a206163636f756e747320616e6420696473206c656e67746860008301527f206d69736d6174636800000000000000000000000000000000000000000000006020830152604082019050919050565b6000611ff16028836124e3565b91507f455243313135353a2069647320616e6420616d6f756e7473206c656e6774682060008301527f6d69736d617463680000000000000000000000000000000000000000000000006020830152604082019050919050565b60006120576021836124e3565b91507f455243313135353a206d696e7420746f20746865207a65726f2061646472657360008301527f73000000000000000000000000000000000000000000000000000000000000006020830152604082019050919050565b6120b9816125b4565b82525050565b6120c8816125b4565b82525050565b600060a0820190506120e36000830188611b60565b6120f06020830187611b60565b81810360408301526121028186611b6f565b905081810360608301526121168185611b6f565b9050818103608083015261212a8184611bdc565b90509695505050505050565b600060a08201905061214b6000830188611b60565b6121586020830187611b60565b61216560408301866120bf565b61217260608301856120bf565b81810360808301526121848184611bdc565b90509695505050505050565b600060208201905081810360008301526121aa8184611b6f565b905092915050565b600060408201905081810360008301526121cc8185611b6f565b905081810360208301526121e08184611b6f565b90509392505050565b60006020820190506121fe6000830184611bcd565b92915050565b6000602082019050818103600083015261221e8184611c15565b905092915050565b6000602082019050818103600083015261223f81611c4e565b9050919050565b6000602082019050818103600083015261225f81611cb4565b9050919050565b6000602082019050818103600083015261227f81611d1a565b9050919050565b6000602082019050818103600083015261229f81611d80565b9050919050565b600060208201905081810360008301526122bf81611de6565b9050919050565b600060208201905081810360008301526122df81611e4c565b9050919050565b600060208201905081810360008301526122ff81611eb2565b9050919050565b6000602082019050818103600083015261231f81611f18565b9050919050565b6000602082019050818103600083015261233f81611f7e565b9050919050565b6000602082019050818103600083015261235f81611fe4565b9050919050565b6000602082019050818103600083015261237f8161204a565b9050919050565b600060208201905061239b60008301846120bf565b92915050565b60006040820190506123b660008301856120bf565b6123c360208301846120bf565b9392505050565b6000604051905081810181811067ffffffffffffffff821117156123f1576123f06126d9565b5b8060405250919050565b600067ffffffffffffffff821115612416576124156126d9565b5b602082029050602081019050919050565b600067ffffffffffffffff821115612442576124416126d9565b5b602082029050602081019050919050565b600067ffffffffffffffff82111561246e5761246d6126d9565b5b601f19601f8301169050602081019050919050565b6000819050602082019050919050565b600081519050919050565b600081519050919050565b600081519050919050565b6000602082019050919050565b600082825260208201905092915050565b600082825260208201905092915050565b600082825260208201905092915050565b60006124ff826125b4565b915061250a836125b4565b9250827fffffffffffffffffffffffffffffffffffffffffffffffffffffffffffffffff0382111561253f5761253e61267b565b5b828201905092915050565b600061255582612594565b9050919050565b60008115159050919050565b60007fffffffff0000000000000000000000000000000000000000000000000000000082169050919050565b600073ffffffffffffffffffffffffffffffffffffffff82169050919050565b6000819050919050565b82818337600083830152505050565b60005b838110156125eb5780820151818401526020810190506125d0565b838111156125fa576000848401525b50505050565b6000600282049050600182168061261857607f821691505b6020821081141561262c5761262b6126aa565b5b50919050565b600061263d826125b4565b91507fffffffffffffffffffffffffffffffffffffffffffffffffffffffffffffffff8214156126705761266f61267b565b5b600182019050919050565b7f4e487b7100000000000000000000000000000000000000000000000000000000600052601160045260246000fd5b7f4e487b7100000000000000000000000000000000000000000000000000000000600052602260045260246000fd5b7f4e487b7100000000000000000000000000000000000000000000000000000000600052604160045260246000fd5b6000601f19601f8301169050919050565b60008160e01c9050919050565b600060443d1015612736576127d9565b60046000803e612747600051612719565b6308c379a0811461275857506127d9565b60405160043d036004823e80513d602482011167ffffffffffffffff82111715612784575050506127d9565b808201805167ffffffffffffffff8111156127a35750505050506127d9565b8060208301013d85018111156127be575050505050506127d9565b6127c782612708565b60208401016040528296505050505050505b90565b6127e58161254a565b81146127f057600080fd5b50565b6127fc8161255c565b811461280757600080fd5b50565b61281381612568565b811461281e57600080fd5b50565b61282a816125b4565b811461283557600080fd5b5056fea2646970667358221220753687735a847dd0aad4edd2cc249ca33be8b890a78bbfb4c1797a0aa480b3da64736f6c63430008000033",
  "immutableReferences": {},
  "source": "pragma solidity >=0.4.22 <0.9.0;\n\nimport \"openzeppelin-solidity/contracts/token/ERC1155/ERC1155.sol\";\n\ncontract SolutionERC1155 is ERC1155{\n\n    uint public constant soultanina=0;\n    uint public constant korinthiaki=1;\n\n    constructor() ERC1155(\"example.json\"){}\n\n    //just mine new token\n    function mint(uint amount,uint token_id) public{\n        _mint(msg.sender,token_id, amount,\"\");\n    }\n\n}",
  "sourcePath": "/home/andrsend/Desktop/AgroToken/contracts/SolutionERC1155.sol",
  "compiler": {
    "name": "solc",
    "version": "0.8.0+commit.c7dfd78e.Emscripten.clang"
  },
  "schemaVersion": "3.4.4",
  "updatedAt": "2022-02-08T15:55:31.634Z",
  "networkType": "ethereum",
  "devdoc": {
    "kind": "dev",
    "methods": {
      "balanceOf(address,uint256)": {
        "details": "See {IERC1155-balanceOf}. Requirements: - `account` cannot be the zero address."
      },
      "balanceOfBatch(address[],uint256[])": {
        "details": "See {IERC1155-balanceOfBatch}. Requirements: - `accounts` and `ids` must have the same length."
      },
      "isApprovedForAll(address,address)": {
        "details": "See {IERC1155-isApprovedForAll}."
      },
      "safeBatchTransferFrom(address,address,uint256[],uint256[],bytes)": {
        "details": "See {IERC1155-safeBatchTransferFrom}."
      },
      "safeTransferFrom(address,address,uint256,uint256,bytes)": {
        "details": "See {IERC1155-safeTransferFrom}."
      },
      "setApprovalForAll(address,bool)": {
        "details": "See {IERC1155-setApprovalForAll}."
      },
      "supportsInterface(bytes4)": {
        "details": "See {IERC165-supportsInterface}."
      },
      "uri(uint256)": {
        "details": "See {IERC1155MetadataURI-uri}. This implementation returns the same URI for *all* token types. It relies on the token type ID substitution mechanism https://eips.ethereum.org/EIPS/eip-1155#metadata[defined in the EIP]. Clients calling this function must replace the `\\{id\\}` substring with the actual token type ID."
      }
    },
    "version": 1
  },
  "userdoc": {
    "kind": "user",
    "methods": {},
    "version": 1
  }
}