{
  "contractName": "SolutionERC1155",
  "abi": [
    {
      "inputs": [],
      "stateMutability": "nonpayable",
      "type": "constructor"
    },
    {
      "anonymous": false,
      "inputs": [
        {
          "indexed": true,
          "internalType": "address",
          "name": "account",
          "type": "address"
        },
        {
          "indexed": true,
          "internalType": "address",
          "name": "operator",
          "type": "address"
        },
        {
          "indexed": false,
          "internalType": "bool",
          "name": "approved",
          "type": "bool"
        }
      ],
      "name": "ApprovalForAll",
      "type": "event"
    },
    {
      "anonymous": false,
      "inputs": [
        {
          "indexed": true,
          "internalType": "address",
          "name": "operator",
          "type": "address"
        },
        {
          "indexed": true,
          "internalType": "address",
          "name": "from",
          "type": "address"
        },
        {
          "indexed": true,
          "internalType": "address",
          "name": "to",
          "type": "address"
        },
        {
          "indexed": false,
          "internalType": "uint256[]",
          "name": "ids",
          "type": "uint256[]"
        },
        {
          "indexed": false,
          "internalType": "uint256[]",
          "name": "values",
          "type": "uint256[]"
        }
      ],
      "name": "TransferBatch",
      "type": "event"
    },
    {
      "anonymous": false,
      "inputs": [
        {
          "indexed": true,
          "internalType": "address",
          "name": "operator",
          "type": "address"
        },
        {
          "indexed": true,
          "internalType": "address",
          "name": "from",
          "type": "address"
        },
        {
          "indexed": true,
          "internalType": "address",
          "name": "to",
          "type": "address"
        },
        {
          "indexed": false,
          "internalType": "uint256",
          "name": "id",
          "type": "uint256"
        },
        {
          "indexed": false,
          "internalType": "uint256",
          "name": "value",
          "type": "uint256"
        }
      ],
      "name": "TransferSingle",
      "type": "event"
    },
    {
      "anonymous": false,
      "inputs": [
        {
          "indexed": false,
          "internalType": "string",
          "name": "value",
          "type": "string"
        },
        {
          "indexed": true,
          "internalType": "uint256",
          "name": "id",
          "type": "uint256"
        }
      ],
      "name": "URI",
      "type": "event"
    },
    {
      "anonymous": false,
      "inputs": [
        {
          "indexed": true,
          "internalType": "uint256",
          "name": "id",
          "type": "uint256"
        },
        {
          "indexed": false,
          "internalType": "uint256",
          "name": "token_id",
          "type": "uint256"
        },
        {
          "indexed": false,
          "internalType": "address",
          "name": "owner",
          "type": "address"
        }
      ],
      "name": "tokeninfo",
      "type": "event"
    },
    {
      "inputs": [
        {
          "internalType": "address",
          "name": "account",
          "type": "address"
        },
        {
          "internalType": "uint256",
          "name": "id",
          "type": "uint256"
        }
      ],
      "name": "balanceOf",
      "outputs": [
        {
          "internalType": "uint256",
          "name": "",
          "type": "uint256"
        }
      ],
      "stateMutability": "view",
      "type": "function",
      "constant": true
    },
    {
      "inputs": [
        {
          "internalType": "address[]",
          "name": "accounts",
          "type": "address[]"
        },
        {
          "internalType": "uint256[]",
          "name": "ids",
          "type": "uint256[]"
        }
      ],
      "name": "balanceOfBatch",
      "outputs": [
        {
          "internalType": "uint256[]",
          "name": "",
          "type": "uint256[]"
        }
      ],
      "stateMutability": "view",
      "type": "function",
      "constant": true
    },
    {
      "inputs": [
        {
          "internalType": "address",
          "name": "account",
          "type": "address"
        },
        {
          "internalType": "address",
          "name": "operator",
          "type": "address"
        }
      ],
      "name": "isApprovedForAll",
      "outputs": [
        {
          "internalType": "bool",
          "name": "",
          "type": "bool"
        }
      ],
      "stateMutability": "view",
      "type": "function",
      "constant": true
    },
    {
      "inputs": [
        {
          "internalType": "address",
          "name": "from",
          "type": "address"
        },
        {
          "internalType": "address",
          "name": "to",
          "type": "address"
        },
        {
          "internalType": "uint256[]",
          "name": "ids",
          "type": "uint256[]"
        },
        {
          "internalType": "uint256[]",
          "name": "amounts",
          "type": "uint256[]"
        },
        {
          "internalType": "bytes",
          "name": "data",
          "type": "bytes"
        }
      ],
      "name": "safeBatchTransferFrom",
      "outputs": [],
      "stateMutability": "nonpayable",
      "type": "function"
    },
    {
      "inputs": [
        {
          "internalType": "address",
          "name": "from",
          "type": "address"
        },
        {
          "internalType": "address",
          "name": "to",
          "type": "address"
        },
        {
          "internalType": "uint256",
          "name": "id",
          "type": "uint256"
        },
        {
          "internalType": "uint256",
          "name": "amount",
          "type": "uint256"
        },
        {
          "internalType": "bytes",
          "name": "data",
          "type": "bytes"
        }
      ],
      "name": "safeTransferFrom",
      "outputs": [],
      "stateMutability": "nonpayable",
      "type": "function"
    },
    {
      "inputs": [
        {
          "internalType": "address",
          "name": "operator",
          "type": "address"
        },
        {
          "internalType": "bool",
          "name": "approved",
          "type": "bool"
        }
      ],
      "name": "setApprovalForAll",
      "outputs": [],
      "stateMutability": "nonpayable",
      "type": "function"
    },
    {
      "inputs": [
        {
          "internalType": "bytes4",
          "name": "interfaceId",
          "type": "bytes4"
        }
      ],
      "name": "supportsInterface",
      "outputs": [
        {
          "internalType": "bool",
          "name": "",
          "type": "bool"
        }
      ],
      "stateMutability": "view",
      "type": "function",
      "constant": true
    },
    {
      "inputs": [
        {
          "internalType": "uint256",
          "name": "",
          "type": "uint256"
        }
      ],
      "name": "uri",
      "outputs": [
        {
          "internalType": "string",
          "name": "",
          "type": "string"
        }
      ],
      "stateMutability": "view",
      "type": "function",
      "constant": true
    },
    {
      "inputs": [
        {
          "internalType": "uint256",
          "name": "amount",
          "type": "uint256"
        },
        {
          "internalType": "uint256",
          "name": "token_id",
          "type": "uint256"
        }
      ],
      "name": "mint",
      "outputs": [],
      "stateMutability": "nonpayable",
      "type": "function"
    },
    {
      "inputs": [
        {
          "internalType": "uint256",
          "name": "amount",
          "type": "uint256"
        },
        {
          "internalType": "uint256",
          "name": "token_id",
          "type": "uint256"
        }
      ],
      "name": "mintnew",
      "outputs": [],
      "stateMutability": "nonpayable",
      "type": "function"
    },
    {
      "inputs": [
        {
          "internalType": "uint256",
          "name": "id",
          "type": "uint256"
        },
        {
          "internalType": "uint256",
          "name": "token_id",
          "type": "uint256"
        },
        {
          "internalType": "address",
          "name": "to",
          "type": "address"
        }
      ],
      "name": "transfer",
      "outputs": [],
      "stateMutability": "nonpayable",
      "type": "function"
    },
    {
      "inputs": [
        {
          "internalType": "uint256[]",
          "name": "amount",
          "type": "uint256[]"
        },
        {
          "internalType": "uint256[]",
          "name": "tokens_id",
          "type": "uint256[]"
        }
      ],
      "name": "mintbatch",
      "outputs": [],
      "stateMutability": "nonpayable",
      "type": "function"
    }
  ],
  "bytecode": "0x608060405260006003553480156200001657600080fd5b506040518060400160405280600c81526020017f6578616d706c652e6a736f6e00000000000000000000000000000000000000008152506200005e816200006560201b60201c565b5062000196565b80600290805190602001906200007d92919062000081565b5050565b8280546200008f9062000131565b90600052602060002090601f016020900481019282620000b35760008555620000ff565b82601f10620000ce57805160ff1916838001178555620000ff565b82800160010185558215620000ff579182015b82811115620000fe578251825591602001919060010190620000e1565b5b5090506200010e919062000112565b5090565b5b808211156200012d57600081600090555060010162000113565b5090565b600060028204905060018216806200014a57607f821691505b6020821081141562000161576200016062000167565b5b50919050565b7f4e487b7100000000000000000000000000000000000000000000000000000000600052602260045260246000fd5b612ce280620001a66000396000f3fe608060405234801561001057600080fd5b50600436106100b35760003560e01c80633f13ccf1116100715780633f13ccf11461019c5780634e1273f4146101b8578063a22cb465146101e8578063e985e9c514610204578063f242432a14610234578063ff695eaa14610250576100b3565b8062fdd58e146100b857806301ffc9a7146100e85780630e89341c146101185780631b2ef1ca14610148578063289df2cb146101645780632eb2c2d614610180575b600080fd5b6100d260048036038101906100cd9190611d79565b61026c565b6040516100df91906127d1565b60405180910390f35b61010260048036038101906100fd9190611e8d565b610335565b60405161010f9190612634565b60405180910390f35b610132600480360381019061012d9190611edf565b610417565b60405161013f919061264f565b60405180910390f35b610162600480360381019061015d9190611f08565b6104ab565b005b61017e60048036038101906101799190611f44565b6104ca565b005b61019a60048036038101906101959190611bef565b610526565b005b6101b660048036038101906101b19190611f08565b6105c7565b005b6101d260048036038101906101cd9190611db5565b610659565b6040516101df91906125db565b60405180910390f35b61020260048036038101906101fd9190611d3d565b61080a565b005b61021e60048036038101906102199190611bb3565b610820565b60405161022b9190612634565b60405180910390f35b61024e60048036038101906102499190611cae565b6108b4565b005b61026a60048036038101906102659190611e21565b610955565b005b60008073ffffffffffffffffffffffffffffffffffffffff168373ffffffffffffffffffffffffffffffffffffffff1614156102dd576040517f08c379a00000000000000000000000000000000000000000000000000000000081526004016102d4906126b1565b60405180910390fd5b60008083815260200190815260200160002060008473ffffffffffffffffffffffffffffffffffffffff1673ffffffffffffffffffffffffffffffffffffffff16815260200190815260200160002054905092915050565b60007fd9b67a26000000000000000000000000000000000000000000000000000000007bffffffffffffffffffffffffffffffffffffffffffffffffffffffff1916827bffffffffffffffffffffffffffffffffffffffffffffffffffffffff1916148061040057507f0e89341c000000000000000000000000000000000000000000000000000000007bffffffffffffffffffffffffffffffffffffffffffffffffffffffff1916827bffffffffffffffffffffffffffffffffffffffffffffffffffffffff1916145b80610410575061040f82610974565b5b9050919050565b60606002805461042690612a74565b80601f016020809104026020016040519081016040528092919081815260200182805461045290612a74565b801561049f5780601f106104745761010080835404028352916020019161049f565b820191906000526020600020905b81548152906001019060200180831161048257829003601f168201915b50505050509050919050565b6104c6338284604051806020016040528060008152506109de565b5050565b6104e7338284600160405180602001604052806000815250610b74565b827fb61f96421c7d0dd4050b18cddd4b769d16d725c8e8cb63fb39e07168492fe42283836040516105199291906127ec565b60405180910390a2505050565b61052e610df6565b73ffffffffffffffffffffffffffffffffffffffff168573ffffffffffffffffffffffffffffffffffffffff16148061057457506105738561056e610df6565b610820565b5b6105b3576040517f08c379a00000000000000000000000000000000000000000000000000000000081526004016105aa90612711565b60405180910390fd5b6105c08585858585610dfe565b5050505050565b6105e2338284604051806020016040528060008152506109de565b60005b82811015610654576003547fb61f96421c7d0dd4050b18cddd4b769d16d725c8e8cb63fb39e07168492fe42283336040516106219291906127ec565b60405180910390a26003600081548092919061063c90612aa6565b9190505550808061064c90612aa6565b9150506105e5565b505050565b6060815183511461069f576040517f08c379a000000000000000000000000000000000000000000000000000000000815260040161069690612771565b60405180910390fd5b6000835167ffffffffffffffff8111156106e2577f4e487b7100000000000000000000000000000000000000000000000000000000600052604160045260246000fd5b6040519080825280602002602001820160405280156107105781602001602082028036833780820191505090505b50905060005b84518110156107ff576107a985828151811061075b577f4e487b7100000000000000000000000000000000000000000000000000000000600052603260045260246000fd5b602002602001015185838151811061079c577f4e487b7100000000000000000000000000000000000000000000000000000000600052603260045260246000fd5b602002602001015161026c565b8282815181106107e2577f4e487b7100000000000000000000000000000000000000000000000000000000600052603260045260246000fd5b602002602001018181525050806107f890612aa6565b9050610716565b508091505092915050565b61081c610815610df6565b838361115e565b5050565b6000600160008473ffffffffffffffffffffffffffffffffffffffff1673ffffffffffffffffffffffffffffffffffffffff16815260200190815260200160002060008373ffffffffffffffffffffffffffffffffffffffff1673ffffffffffffffffffffffffffffffffffffffff16815260200190815260200160002060009054906101000a900460ff16905092915050565b6108bc610df6565b73ffffffffffffffffffffffffffffffffffffffff168573ffffffffffffffffffffffffffffffffffffffff1614806109025750610901856108fc610df6565b610820565b5b610941576040517f08c379a0000000000000000000000000000000000000000000000000000000008152600401610938906126d1565b60405180910390fd5b61094e8585858585610b74565b5050505050565b610970338284604051806020016040528060008152506112cb565b5050565b60007f01ffc9a7000000000000000000000000000000000000000000000000000000007bffffffffffffffffffffffffffffffffffffffffffffffffffffffff1916827bffffffffffffffffffffffffffffffffffffffffffffffffffffffff1916149050919050565b600073ffffffffffffffffffffffffffffffffffffffff168473ffffffffffffffffffffffffffffffffffffffff161415610a4e576040517f08c379a0000000000000000000000000000000000000000000000000000000008152600401610a45906127b1565b60405180910390fd5b6000610a58610df6565b9050610a7981600087610a6a88611535565b610a7388611535565b876115fb565b8260008086815260200190815260200160002060008773ffffffffffffffffffffffffffffffffffffffff1673ffffffffffffffffffffffffffffffffffffffff1681526020019081526020016000206000828254610ad89190612968565b925050819055508473ffffffffffffffffffffffffffffffffffffffff16600073ffffffffffffffffffffffffffffffffffffffff168273ffffffffffffffffffffffffffffffffffffffff167fc3d58168c5ae7397731d063d5bbf3d657854427343f4c083240f7aacaa2d0f628787604051610b56929190612815565b60405180910390a4610b6d81600087878787611603565b5050505050565b600073ffffffffffffffffffffffffffffffffffffffff168473ffffffffffffffffffffffffffffffffffffffff161415610be4576040517f08c379a0000000000000000000000000000000000000000000000000000000008152600401610bdb906126f1565b60405180910390fd5b6000610bee610df6565b9050610c0e818787610bff88611535565b610c0888611535565b876115fb565b600080600086815260200190815260200160002060008873ffffffffffffffffffffffffffffffffffffffff1673ffffffffffffffffffffffffffffffffffffffff16815260200190815260200160002054905083811015610ca5576040517f08c379a0000000000000000000000000000000000000000000000000000000008152600401610c9c90612731565b60405180910390fd5b83810360008087815260200190815260200160002060008973ffffffffffffffffffffffffffffffffffffffff1673ffffffffffffffffffffffffffffffffffffffff168152602001908152602001600020819055508360008087815260200190815260200160002060008873ffffffffffffffffffffffffffffffffffffffff1673ffffffffffffffffffffffffffffffffffffffff1681526020019081526020016000206000828254610d5a9190612968565b925050819055508573ffffffffffffffffffffffffffffffffffffffff168773ffffffffffffffffffffffffffffffffffffffff168373ffffffffffffffffffffffffffffffffffffffff167fc3d58168c5ae7397731d063d5bbf3d657854427343f4c083240f7aacaa2d0f628888604051610dd7929190612815565b60405180910390a4610ded828888888888611603565b50505050505050565b600033905090565b8151835114610e42576040517f08c379a0000000000000000000000000000000000000000000000000000000008152600401610e3990612791565b60405180910390fd5b600073ffffffffffffffffffffffffffffffffffffffff168473ffffffffffffffffffffffffffffffffffffffff161415610eb2576040517f08c379a0000000000000000000000000000000000000000000000000000000008152600401610ea9906126f1565b60405180910390fd5b6000610ebc610df6565b9050610ecc8187878787876115fb565b60005b84518110156110c9576000858281518110610f13577f4e487b7100000000000000000000000000000000000000000000000000000000600052603260045260246000fd5b602002602001015190506000858381518110610f58577f4e487b7100000000000000000000000000000000000000000000000000000000600052603260045260246000fd5b60200260200101519050600080600084815260200190815260200160002060008b73ffffffffffffffffffffffffffffffffffffffff1673ffffffffffffffffffffffffffffffffffffffff16815260200190815260200160002054905081811015610ff9576040517f08c379a0000000000000000000000000000000000000000000000000000000008152600401610ff090612731565b60405180910390fd5b81810360008085815260200190815260200160002060008c73ffffffffffffffffffffffffffffffffffffffff1673ffffffffffffffffffffffffffffffffffffffff168152602001908152602001600020819055508160008085815260200190815260200160002060008b73ffffffffffffffffffffffffffffffffffffffff1673ffffffffffffffffffffffffffffffffffffffff16815260200190815260200160002060008282546110ae9190612968565b92505081905550505050806110c290612aa6565b9050610ecf565b508473ffffffffffffffffffffffffffffffffffffffff168673ffffffffffffffffffffffffffffffffffffffff168273ffffffffffffffffffffffffffffffffffffffff167f4a39dc06d4c0dbc64b70af90fd698a233a518aa5d07e595d983b8c0526c8f7fb87876040516111409291906125fd565b60405180910390a46111568187878787876117d3565b505050505050565b8173ffffffffffffffffffffffffffffffffffffffff168373ffffffffffffffffffffffffffffffffffffffff1614156111cd576040517f08c379a00000000000000000000000000000000000000000000000000000000081526004016111c490612751565b60405180910390fd5b80600160008573ffffffffffffffffffffffffffffffffffffffff1673ffffffffffffffffffffffffffffffffffffffff16815260200190815260200160002060008473ffffffffffffffffffffffffffffffffffffffff1673ffffffffffffffffffffffffffffffffffffffff16815260200190815260200160002060006101000a81548160ff0219169083151502179055508173ffffffffffffffffffffffffffffffffffffffff168373ffffffffffffffffffffffffffffffffffffffff167f17307eab39ab6107e8899845ad3d59bd9653f200f220920489ca2b5937696c31836040516112be9190612634565b60405180910390a3505050565b600073ffffffffffffffffffffffffffffffffffffffff168473ffffffffffffffffffffffffffffffffffffffff16141561133b576040517f08c379a0000000000000000000000000000000000000000000000000000000008152600401611332906127b1565b60405180910390fd5b815183511461137f576040517f08c379a000000000000000000000000000000000000000000000000000000000815260040161137690612791565b60405180910390fd5b6000611389610df6565b905061139a816000878787876115fb565b60005b845181101561149f578381815181106113df577f4e487b7100000000000000000000000000000000000000000000000000000000600052603260045260246000fd5b6020026020010151600080878481518110611423577f4e487b7100000000000000000000000000000000000000000000000000000000600052603260045260246000fd5b6020026020010151815260200190815260200160002060008873ffffffffffffffffffffffffffffffffffffffff1673ffffffffffffffffffffffffffffffffffffffff16815260200190815260200160002060008282546114859190612968565b92505081905550808061149790612aa6565b91505061139d565b508473ffffffffffffffffffffffffffffffffffffffff16600073ffffffffffffffffffffffffffffffffffffffff168273ffffffffffffffffffffffffffffffffffffffff167f4a39dc06d4c0dbc64b70af90fd698a233a518aa5d07e595d983b8c0526c8f7fb87876040516115179291906125fd565b60405180910390a461152e816000878787876117d3565b5050505050565b60606000600167ffffffffffffffff81111561157a577f4e487b7100000000000000000000000000000000000000000000000000000000600052604160045260246000fd5b6040519080825280602002602001820160405280156115a85781602001602082028036833780820191505090505b50905082816000815181106115e6577f4e487b7100000000000000000000000000000000000000000000000000000000600052603260045260246000fd5b60200260200101818152505080915050919050565b505050505050565b6116228473ffffffffffffffffffffffffffffffffffffffff166119a3565b156117cb578373ffffffffffffffffffffffffffffffffffffffff1663f23a6e6187878686866040518663ffffffff1660e01b8152600401611668959493929190612581565b602060405180830381600087803b15801561168257600080fd5b505af19250505080156116b357506040513d601f19601f820116820180604052508101906116b09190611eb6565b60015b611742576116bf612b9a565b806116ca5750611707565b806040517f08c379a00000000000000000000000000000000000000000000000000000000081526004016116fe919061264f565b60405180910390fd5b6040517f08c379a000000000000000000000000000000000000000000000000000000000815260040161173990612671565b60405180910390fd5b63f23a6e6160e01b7bffffffffffffffffffffffffffffffffffffffffffffffffffffffff1916817bffffffffffffffffffffffffffffffffffffffffffffffffffffffff1916146117c9576040517f08c379a00000000000000000000000000000000000000000000000000000000081526004016117c090612691565b60405180910390fd5b505b505050505050565b6117f28473ffffffffffffffffffffffffffffffffffffffff166119a3565b1561199b578373ffffffffffffffffffffffffffffffffffffffff1663bc197c8187878686866040518663ffffffff1660e01b8152600401611838959493929190612519565b602060405180830381600087803b15801561185257600080fd5b505af192505050801561188357506040513d601f19601f820116820180604052508101906118809190611eb6565b60015b6119125761188f612b9a565b8061189a57506118d7565b806040517f08c379a00000000000000000000000000000000000000000000000000000000081526004016118ce919061264f565b60405180910390fd5b6040517f08c379a000000000000000000000000000000000000000000000000000000000815260040161190990612671565b60405180910390fd5b63bc197c8160e01b7bffffffffffffffffffffffffffffffffffffffffffffffffffffffff1916817bffffffffffffffffffffffffffffffffffffffffffffffffffffffff191614611999576040517f08c379a000000000000000000000000000000000000000000000000000000000815260040161199090612691565b60405180910390fd5b505b505050505050565b600080823b905060008111915050919050565b60006119c96119c48461286f565b61283e565b905080838252602082019050828560208602820111156119e857600080fd5b60005b85811015611a1857816119fe8882611acc565b8452602084019350602083019250506001810190506119eb565b5050509392505050565b6000611a35611a308461289b565b61283e565b90508083825260208201905082856020860282011115611a5457600080fd5b60005b85811015611a845781611a6a8882611b9e565b845260208401935060208301925050600181019050611a57565b5050509392505050565b6000611aa1611a9c846128c7565b61283e565b905082815260208101848484011115611ab957600080fd5b611ac4848285612a32565b509392505050565b600081359050611adb81612c50565b92915050565b600082601f830112611af257600080fd5b8135611b028482602086016119b6565b91505092915050565b600082601f830112611b1c57600080fd5b8135611b2c848260208601611a22565b91505092915050565b600081359050611b4481612c67565b92915050565b600081359050611b5981612c7e565b92915050565b600081519050611b6e81612c7e565b92915050565b600082601f830112611b8557600080fd5b8135611b95848260208601611a8e565b91505092915050565b600081359050611bad81612c95565b92915050565b60008060408385031215611bc657600080fd5b6000611bd485828601611acc565b9250506020611be585828601611acc565b9150509250929050565b600080600080600060a08688031215611c0757600080fd5b6000611c1588828901611acc565b9550506020611c2688828901611acc565b945050604086013567ffffffffffffffff811115611c4357600080fd5b611c4f88828901611b0b565b935050606086013567ffffffffffffffff811115611c6c57600080fd5b611c7888828901611b0b565b925050608086013567ffffffffffffffff811115611c9557600080fd5b611ca188828901611b74565b9150509295509295909350565b600080600080600060a08688031215611cc657600080fd5b6000611cd488828901611acc565b9550506020611ce588828901611acc565b9450506040611cf688828901611b9e565b9350506060611d0788828901611b9e565b925050608086013567ffffffffffffffff811115611d2457600080fd5b611d3088828901611b74565b9150509295509295909350565b60008060408385031215611d5057600080fd5b6000611d5e85828601611acc565b9250506020611d6f85828601611b35565b9150509250929050565b60008060408385031215611d8c57600080fd5b6000611d9a85828601611acc565b9250506020611dab85828601611b9e565b9150509250929050565b60008060408385031215611dc857600080fd5b600083013567ffffffffffffffff811115611de257600080fd5b611dee85828601611ae1565b925050602083013567ffffffffffffffff811115611e0b57600080fd5b611e1785828601611b0b565b9150509250929050565b60008060408385031215611e3457600080fd5b600083013567ffffffffffffffff811115611e4e57600080fd5b611e5a85828601611b0b565b925050602083013567ffffffffffffffff811115611e7757600080fd5b611e8385828601611b0b565b9150509250929050565b600060208284031215611e9f57600080fd5b6000611ead84828501611b4a565b91505092915050565b600060208284031215611ec857600080fd5b6000611ed684828501611b5f565b91505092915050565b600060208284031215611ef157600080fd5b6000611eff84828501611b9e565b91505092915050565b60008060408385031215611f1b57600080fd5b6000611f2985828601611b9e565b9250506020611f3a85828601611b9e565b9150509250929050565b600080600060608486031215611f5957600080fd5b6000611f6786828701611b9e565b9350506020611f7886828701611b9e565b9250506040611f8986828701611acc565b9150509250925092565b6000611f9f83836124fb565b60208301905092915050565b611fb4816129be565b82525050565b6000611fc582612907565b611fcf8185612935565b9350611fda836128f7565b8060005b8381101561200b578151611ff28882611f93565b9750611ffd83612928565b925050600181019050611fde565b5085935050505092915050565b612021816129d0565b82525050565b600061203282612912565b61203c8185612946565b935061204c818560208601612a41565b61205581612b7c565b840191505092915050565b600061206b8261291d565b6120758185612957565b9350612085818560208601612a41565b61208e81612b7c565b840191505092915050565b60006120a6603483612957565b91507f455243313135353a207472616e7366657220746f206e6f6e204552433131353560008301527f526563656976657220696d706c656d656e7465720000000000000000000000006020830152604082019050919050565b600061210c602883612957565b91507f455243313135353a204552433131353552656365697665722072656a6563746560008301527f6420746f6b656e730000000000000000000000000000000000000000000000006020830152604082019050919050565b6000612172602b83612957565b91507f455243313135353a2062616c616e636520717565727920666f7220746865207a60008301527f65726f20616464726573730000000000000000000000000000000000000000006020830152604082019050919050565b60006121d8602983612957565b91507f455243313135353a2063616c6c6572206973206e6f74206f776e6572206e6f7260008301527f20617070726f76656400000000000000000000000000000000000000000000006020830152604082019050919050565b600061223e602583612957565b91507f455243313135353a207472616e7366657220746f20746865207a65726f20616460008301527f64726573730000000000000000000000000000000000000000000000000000006020830152604082019050919050565b60006122a4603283612957565b91507f455243313135353a207472616e736665722063616c6c6572206973206e6f742060008301527f6f776e6572206e6f7220617070726f76656400000000000000000000000000006020830152604082019050919050565b600061230a602a83612957565b91507f455243313135353a20696e73756666696369656e742062616c616e636520666f60008301527f72207472616e73666572000000000000000000000000000000000000000000006020830152604082019050919050565b6000612370602983612957565b91507f455243313135353a2073657474696e6720617070726f76616c2073746174757360008301527f20666f722073656c6600000000000000000000000000000000000000000000006020830152604082019050919050565b60006123d6602983612957565b91507f455243313135353a206163636f756e747320616e6420696473206c656e67746860008301527f206d69736d6174636800000000000000000000000000000000000000000000006020830152604082019050919050565b600061243c602883612957565b91507f455243313135353a2069647320616e6420616d6f756e7473206c656e6774682060008301527f6d69736d617463680000000000000000000000000000000000000000000000006020830152604082019050919050565b60006124a2602183612957565b91507f455243313135353a206d696e7420746f20746865207a65726f2061646472657360008301527f73000000000000000000000000000000000000000000000000000000000000006020830152604082019050919050565b61250481612a28565b82525050565b61251381612a28565b82525050565b600060a08201905061252e6000830188611fab565b61253b6020830187611fab565b818103604083015261254d8186611fba565b905081810360608301526125618185611fba565b905081810360808301526125758184612027565b90509695505050505050565b600060a0820190506125966000830188611fab565b6125a36020830187611fab565b6125b0604083018661250a565b6125bd606083018561250a565b81810360808301526125cf8184612027565b90509695505050505050565b600060208201905081810360008301526125f58184611fba565b905092915050565b600060408201905081810360008301526126178185611fba565b9050818103602083015261262b8184611fba565b90509392505050565b60006020820190506126496000830184612018565b92915050565b600060208201905081810360008301526126698184612060565b905092915050565b6000602082019050818103600083015261268a81612099565b9050919050565b600060208201905081810360008301526126aa816120ff565b9050919050565b600060208201905081810360008301526126ca81612165565b9050919050565b600060208201905081810360008301526126ea816121cb565b9050919050565b6000602082019050818103600083015261270a81612231565b9050919050565b6000602082019050818103600083015261272a81612297565b9050919050565b6000602082019050818103600083015261274a816122fd565b9050919050565b6000602082019050818103600083015261276a81612363565b9050919050565b6000602082019050818103600083015261278a816123c9565b9050919050565b600060208201905081810360008301526127aa8161242f565b9050919050565b600060208201905081810360008301526127ca81612495565b9050919050565b60006020820190506127e6600083018461250a565b92915050565b6000604082019050612801600083018561250a565b61280e6020830184611fab565b9392505050565b600060408201905061282a600083018561250a565b612837602083018461250a565b9392505050565b6000604051905081810181811067ffffffffffffffff8211171561286557612864612b4d565b5b8060405250919050565b600067ffffffffffffffff82111561288a57612889612b4d565b5b602082029050602081019050919050565b600067ffffffffffffffff8211156128b6576128b5612b4d565b5b602082029050602081019050919050565b600067ffffffffffffffff8211156128e2576128e1612b4d565b5b601f19601f8301169050602081019050919050565b6000819050602082019050919050565b600081519050919050565b600081519050919050565b600081519050919050565b6000602082019050919050565b600082825260208201905092915050565b600082825260208201905092915050565b600082825260208201905092915050565b600061297382612a28565b915061297e83612a28565b9250827fffffffffffffffffffffffffffffffffffffffffffffffffffffffffffffffff038211156129b3576129b2612aef565b5b828201905092915050565b60006129c982612a08565b9050919050565b60008115159050919050565b60007fffffffff0000000000000000000000000000000000000000000000000000000082169050919050565b600073ffffffffffffffffffffffffffffffffffffffff82169050919050565b6000819050919050565b82818337600083830152505050565b60005b83811015612a5f578082015181840152602081019050612a44565b83811115612a6e576000848401525b50505050565b60006002820490506001821680612a8c57607f821691505b60208210811415612aa057612a9f612b1e565b5b50919050565b6000612ab182612a28565b91507fffffffffffffffffffffffffffffffffffffffffffffffffffffffffffffffff821415612ae457612ae3612aef565b5b600182019050919050565b7f4e487b7100000000000000000000000000000000000000000000000000000000600052601160045260246000fd5b7f4e487b7100000000000000000000000000000000000000000000000000000000600052602260045260246000fd5b7f4e487b7100000000000000000000000000000000000000000000000000000000600052604160045260246000fd5b6000601f19601f8301169050919050565b60008160e01c9050919050565b600060443d1015612baa57612c4d565b60046000803e612bbb600051612b8d565b6308c379a08114612bcc5750612c4d565b60405160043d036004823e80513d602482011167ffffffffffffffff82111715612bf857505050612c4d565b808201805167ffffffffffffffff811115612c17575050505050612c4d565b8060208301013d8501811115612c3257505050505050612c4d565b612c3b82612b7c565b60208401016040528296505050505050505b90565b612c59816129be565b8114612c6457600080fd5b50565b612c70816129d0565b8114612c7b57600080fd5b50565b612c87816129dc565b8114612c9257600080fd5b50565b612c9e81612a28565b8114612ca957600080fd5b5056fea264697066735822122070499135d3288ca0793578c42048cbb1c911915b7a28c592bd8611c5136c1d9e64736f6c63430008000033",
  "immutableReferences": {},
  "source": "pragma solidity >=0.4.22 <0.9.0;\n\nimport \"openzeppelin-solidity/contracts/token/ERC1155/ERC1155.sol\";\n\ncontract SolutionERC1155 is ERC1155{\n\n    event tokeninfo(uint indexed id, uint token_id, address owner);\n    uint nonce=0;\n\n    constructor() ERC1155(\"example.json\"){}\n\n    //just mine new token\n    function mint(uint amount,uint token_id) public{\n        _mint(msg.sender,token_id, amount,\"\");\n    }\n\n    function mintnew(uint amount,uint token_id) public{\n        _mint(msg.sender,token_id, amount,\"\");\n        for (uint i = 0; i < amount; i++) {\n            emit tokeninfo(nonce, token_id, msg.sender);\n            nonce++;\n        }\n    }\n\n    function transfer(uint id,uint token_id,address to) public{\n        _safeTransferFrom(msg.sender,to,token_id,1,\"\");\n        emit tokeninfo(id, token_id, to);\n    }\n\n    function mintbatch(uint[] memory amount,uint[] memory tokens_id) public{\n        _mintBatch(msg.sender,tokens_id, amount,\"\");\n    }\n\n}",
  "sourcePath": "/home/andrsend/Desktop/AgroToken/contracts/SolutionERC1155.sol",
  "compiler": {
    "name": "solc",
    "version": "0.8.0+commit.c7dfd78e.Emscripten.clang"
  },
  "schemaVersion": "3.4.4",
  "updatedAt": "2022-04-05T12:09:36.544Z",
  "networkType": "ethereum",
  "devdoc": {
    "kind": "dev",
    "methods": {
      "balanceOf(address,uint256)": {
        "details": "See {IERC1155-balanceOf}. Requirements: - `account` cannot be the zero address."
      },
      "balanceOfBatch(address[],uint256[])": {
        "details": "See {IERC1155-balanceOfBatch}. Requirements: - `accounts` and `ids` must have the same length."
      },
      "isApprovedForAll(address,address)": {
        "details": "See {IERC1155-isApprovedForAll}."
      },
      "safeBatchTransferFrom(address,address,uint256[],uint256[],bytes)": {
        "details": "See {IERC1155-safeBatchTransferFrom}."
      },
      "safeTransferFrom(address,address,uint256,uint256,bytes)": {
        "details": "See {IERC1155-safeTransferFrom}."
      },
      "setApprovalForAll(address,bool)": {
        "details": "See {IERC1155-setApprovalForAll}."
      },
      "supportsInterface(bytes4)": {
        "details": "See {IERC165-supportsInterface}."
      },
      "uri(uint256)": {
        "details": "See {IERC1155MetadataURI-uri}. This implementation returns the same URI for *all* token types. It relies on the token type ID substitution mechanism https://eips.ethereum.org/EIPS/eip-1155#metadata[defined in the EIP]. Clients calling this function must replace the `\\{id\\}` substring with the actual token type ID."
      }
    },
    "version": 1
  },
  "userdoc": {
    "kind": "user",
    "methods": {},
    "version": 1
  }
}